{
  "contracts/TokenVestingController.sol": {
    "TokenVestingController": {
      "abi": [
        {
          "anonymous": false,
          "inputs": [
            {
              "indexed": true,
              "internalType": "address",
              "name": "beneficiary",
              "type": "address"
            },
            {
              "indexed": false,
              "internalType": "uint256",
              "name": "amount",
              "type": "uint256"
            },
            {
              "indexed": false,
              "internalType": "bool",
              "name": "revocable",
              "type": "bool"
            }
          ],
          "name": "Awarded",
          "type": "event"
        },
        {
          "anonymous": false,
          "inputs": [
            {
              "indexed": true,
              "internalType": "address",
              "name": "previousOwner",
              "type": "address"
            },
            {
              "indexed": true,
              "internalType": "address",
              "name": "newOwner",
              "type": "address"
            }
          ],
          "name": "OwnershipTransferred",
          "type": "event"
        },
        {
          "anonymous": false,
          "inputs": [
            {
              "indexed": true,
              "internalType": "address",
              "name": "beneficiary",
              "type": "address"
            },
            {
              "indexed": false,
              "internalType": "uint256",
              "name": "amount",
              "type": "uint256"
            }
          ],
          "name": "Released",
          "type": "event"
        },
        {
          "anonymous": false,
          "inputs": [
            {
              "indexed": true,
              "internalType": "address",
              "name": "beneficiary",
              "type": "address"
            },
            {
              "indexed": false,
              "internalType": "uint256",
              "name": "revokedAmount",
              "type": "uint256"
            }
          ],
          "name": "Revoked",
          "type": "event"
        },
        {
          "inputs": [],
          "name": "alreadyGrantedTokens",
          "outputs": [
            {
              "internalType": "uint256",
              "name": "",
              "type": "uint256"
            }
          ],
          "stateMutability": "view",
          "type": "function"
        },
        {
          "inputs": [
            {
              "internalType": "address",
              "name": "",
              "type": "address"
            }
          ],
          "name": "awards",
          "outputs": [
            {
              "internalType": "uint256",
              "name": "amount",
              "type": "uint256"
            },
            {
              "internalType": "uint256",
              "name": "released",
              "type": "uint256"
            },
            {
              "internalType": "bool",
              "name": "revocable",
              "type": "bool"
            },
            {
              "internalType": "bool",
              "name": "revoked",
              "type": "bool"
            }
          ],
          "stateMutability": "view",
          "type": "function"
        },
        {
          "inputs": [
            {
              "internalType": "address",
              "name": "beneficiary",
              "type": "address"
            }
          ],
          "name": "getReleasableAmount",
          "outputs": [
            {
              "internalType": "uint256",
              "name": "",
              "type": "uint256"
            }
          ],
          "stateMutability": "view",
          "type": "function"
        },
        {
          "inputs": [
            {
              "internalType": "address",
              "name": "beneficiary",
              "type": "address"
            }
          ],
          "name": "getVestedAmount",
          "outputs": [
            {
              "internalType": "uint256",
              "name": "",
              "type": "uint256"
            }
          ],
          "stateMutability": "view",
          "type": "function"
        },
        {
          "inputs": [
            {
              "internalType": "address[]",
              "name": "addresses",
              "type": "address[]"
            },
            {
              "internalType": "uint256[]",
              "name": "awardsAmount",
              "type": "uint256[]"
            },
            {
              "internalType": "bool[]",
              "name": "revokeds",
              "type": "bool[]"
            }
          ],
          "name": "grantTokens",
          "outputs": [],
          "stateMutability": "nonpayable",
          "type": "function"
        },
        {
          "inputs": [
            {
              "internalType": "uint256",
              "name": "_start",
              "type": "uint256"
            },
            {
              "internalType": "uint256",
              "name": "_cliff",
              "type": "uint256"
            },
            {
              "internalType": "uint256",
              "name": "_duration",
              "type": "uint256"
            },
            {
              "internalType": "address",
              "name": "_token",
              "type": "address"
            }
          ],
          "name": "init",
          "outputs": [],
          "stateMutability": "nonpayable",
          "type": "function"
        },
        {
          "inputs": [],
          "name": "owner",
          "outputs": [
            {
              "internalType": "address",
              "name": "",
              "type": "address"
            }
          ],
          "stateMutability": "view",
          "type": "function"
        },
        {
          "inputs": [
            {
              "internalType": "address",
              "name": "beneficiary",
              "type": "address"
            }
          ],
          "name": "release",
          "outputs": [],
          "stateMutability": "nonpayable",
          "type": "function"
        },
        {
          "inputs": [],
          "name": "renounceOwnership",
          "outputs": [],
          "stateMutability": "nonpayable",
          "type": "function"
        },
        {
          "inputs": [
            {
              "internalType": "address",
              "name": "beneficiary",
              "type": "address"
            }
          ],
          "name": "revoke",
          "outputs": [],
          "stateMutability": "nonpayable",
          "type": "function"
        },
        {
          "inputs": [],
          "name": "targetToken",
          "outputs": [
            {
              "internalType": "contract IERC20",
              "name": "",
              "type": "address"
            }
          ],
          "stateMutability": "view",
          "type": "function"
        },
        {
          "inputs": [
            {
              "internalType": "address",
              "name": "newOwner",
              "type": "address"
            }
          ],
          "name": "transferOwnership",
          "outputs": [],
          "stateMutability": "nonpayable",
          "type": "function"
        },
        {
          "inputs": [],
          "name": "vestingCliff",
          "outputs": [
            {
              "internalType": "uint256",
              "name": "",
              "type": "uint256"
            }
          ],
          "stateMutability": "view",
          "type": "function"
        },
        {
          "inputs": [],
          "name": "vestingDuration",
          "outputs": [
            {
              "internalType": "uint256",
              "name": "",
              "type": "uint256"
            }
          ],
          "stateMutability": "view",
          "type": "function"
        },
        {
          "inputs": [],
          "name": "vestingStart",
          "outputs": [
            {
              "internalType": "uint256",
              "name": "",
              "type": "uint256"
            }
          ],
          "stateMutability": "view",
          "type": "function"
        }
      ],
      "evm": {
        "bytecode": {
          "linkReferences": {},
          "object": "608060405234801561001057600080fd5b506126ff806100206000396000f3fe608060405234801561001057600080fd5b50600436106100f55760003560e01c80637b0e5f5611610097578063d5a73fdd11610066578063d5a73fdd1461024f578063e60e26851461027f578063f2fde38b1461029d578063f3640e74146102b9576100f5565b80637b0e5f56146101c65780638da5cb5b146101f9578063a8d7f38c14610217578063cdd7b1fd14610233576100f5565b80632afd1a7d116100d35780632afd1a7d14610152578063327107f714610182578063715018a6146101a057806374a8f103146101aa576100f5565b80631514617e146100fa5780631916558714610118578063254800d414610134575b600080fd5b6101026102d7565b60405161010f91906120b3565b60405180910390f35b610132600480360381019061012d9190611aa6565b6102dd565b005b61013c6103f5565b60405161014991906120b3565b60405180910390f35b61016c60048036038101906101679190611aa6565b6103fb565b60405161017991906120b3565b60405180910390f35b61018a610429565b6040516101979190611ef6565b60405180910390f35b6101a861044f565b005b6101c460048036038101906101bf9190611aa6565b61058c565b005b6101e060048036038101906101db9190611aa6565b610865565b6040516101f094939291906120f7565b60405180910390f35b6102016108af565b60405161020e9190611eb2565b60405180910390f35b610231600480360381019061022c9190611acf565b6108d9565b005b61024d60048036038101906102489190611bee565b610d0f565b005b61026960048036038101906102649190611aa6565b610d9d565b60405161027691906120b3565b60405180910390f35b610287610e23565b60405161029491906120b3565b60405180910390f35b6102b760048036038101906102b29190611aa6565b610e29565b005b6102c1610fd5565b6040516102ce91906120b3565b60405180910390f35b60675481565b60006102e8826103fb565b90506000811161032d576040517f08c379a000000000000000000000000000000000000000000000000000000000815260040161032490611f93565b60405180910390fd5b600061033883610fdb565b90508181600101600082825461034e919061216e565b925050819055506103a28383606960009054906101000a900473ffffffffffffffffffffffffffffffffffffffff1673ffffffffffffffffffffffffffffffffffffffff166110289092919063ffffffff16565b8273ffffffffffffffffffffffffffffffffffffffff167fb21fb52d5749b80f3182f8c6992236b5e5576681880914484d7f4c9b062e619e836040516103e891906120b3565b60405180910390a2505050565b60655481565b600080610407836110ae565b9050806020015161041784610d9d565b610421919061224f565b915050919050565b606960009054906101000a900473ffffffffffffffffffffffffffffffffffffffff1681565b610457611157565b73ffffffffffffffffffffffffffffffffffffffff166104756108af565b73ffffffffffffffffffffffffffffffffffffffff16146104cb576040517f08c379a00000000000000000000000000000000000000000000000000000000081526004016104c290611fd3565b60405180910390fd5b600073ffffffffffffffffffffffffffffffffffffffff16603360009054906101000a900473ffffffffffffffffffffffffffffffffffffffff1673ffffffffffffffffffffffffffffffffffffffff167f8be0079c531659141344cd1fd0a4f28419497f9722a3daafe3b4186f6b6457e060405160405180910390a36000603360006101000a81548173ffffffffffffffffffffffffffffffffffffffff021916908373ffffffffffffffffffffffffffffffffffffffff160217905550565b610594611157565b73ffffffffffffffffffffffffffffffffffffffff166105b26108af565b73ffffffffffffffffffffffffffffffffffffffff1614610608576040517f08c379a00000000000000000000000000000000000000000000000000000000081526004016105ff90611fd3565b60405180910390fd5b600061061382610fdb565b90508060020160009054906101000a900460ff16610666576040517f08c379a000000000000000000000000000000000000000000000000000000000815260040161065d90612053565b60405180910390fd5b8060020160019054906101000a900460ff16156106b8576040517f08c379a00000000000000000000000000000000000000000000000000000000081526004016106af90612093565b60405180910390fd5b60006106c3836103fb565b9050808260010160008282546106d9919061216e565b925050819055506000826001015483600001546106f6919061224f565b905060018360020160016101000a81548160ff0219169083151502179055508260010154836000018190555061076f8483606960009054906101000a900473ffffffffffffffffffffffffffffffffffffffff1673ffffffffffffffffffffffffffffffffffffffff166110289092919063ffffffff16565b6107c361077a6108af565b82606960009054906101000a900473ffffffffffffffffffffffffffffffffffffffff1673ffffffffffffffffffffffffffffffffffffffff166110289092919063ffffffff16565b8373ffffffffffffffffffffffffffffffffffffffff167fb21fb52d5749b80f3182f8c6992236b5e5576681880914484d7f4c9b062e619e8360405161080991906120b3565b60405180910390a28373ffffffffffffffffffffffffffffffffffffffff167f713b90881ad62c4fa8ab6bd9197fa86481fc0c11b2edba60026514281b2dbac48260405161085791906120b3565b60405180910390a250505050565b60686020528060005260406000206000915090508060000154908060010154908060020160009054906101000a900460ff16908060020160019054906101000a900460ff16905084565b6000603360009054906101000a900473ffffffffffffffffffffffffffffffffffffffff16905090565b6108e1611157565b73ffffffffffffffffffffffffffffffffffffffff166108ff6108af565b73ffffffffffffffffffffffffffffffffffffffff1614610955576040517f08c379a000000000000000000000000000000000000000000000000000000000815260040161094c90611fd3565b60405180910390fd5b838390508686905014801561096f57508181905086869050145b6109ae576040517f08c379a00000000000000000000000000000000000000000000000000000000081526004016109a590612033565b60405180910390fd5b60008085859050905060005b81811015610a22578686828181106109fb577f4e487b7100000000000000000000000000000000000000000000000000000000600052603260045260246000fd5b9050602002013583610a0d919061216e565b92508080610a1a90612322565b9150506109ba565b5081606a54606960009054906101000a900473ffffffffffffffffffffffffffffffffffffffff1673ffffffffffffffffffffffffffffffffffffffff166370a08231306040518263ffffffff1660e01b8152600401610a829190611eb2565b60206040518083038186803b158015610a9a57600080fd5b505afa158015610aae573d6000803e3d6000fd5b505050506040513d601f19601f82011682018060405250810190610ad29190611bc5565b610adc919061224f565b1015610ae757600080fd5b600080600090505b82811015610cea57610b4d8a8a83818110610b33577f4e487b7100000000000000000000000000000000000000000000000000000000600052603260045260246000fd5b9050602002016020810190610b489190611aa6565b610fdb565b91508160020160009054906101000a900460ff161515868683818110610b9c577f4e487b7100000000000000000000000000000000000000000000000000000000600052603260045260246000fd5b9050602002016020810190610bb19190611b73565b151514610bf3576040517f08c379a0000000000000000000000000000000000000000000000000000000008152600401610bea90612013565b60405180910390fd5b610cd78a8a83818110610c2f577f4e487b7100000000000000000000000000000000000000000000000000000000600052603260045260246000fd5b9050602002016020810190610c449190611aa6565b898984818110610c7d577f4e487b7100000000000000000000000000000000000000000000000000000000600052603260045260246000fd5b90506020020135888885818110610cbd577f4e487b7100000000000000000000000000000000000000000000000000000000600052603260045260246000fd5b9050602002016020810190610cd29190611b73565b61115f565b8080610ce290612322565b915050610aef565b5082606a6000828254610cfd919061216e565b92505081905550505050505050505050565b610d17611157565b73ffffffffffffffffffffffffffffffffffffffff16610d356108af565b73ffffffffffffffffffffffffffffffffffffffff1614610d8b576040517f08c379a0000000000000000000000000000000000000000000000000000000008152600401610d8290611fd3565b60405180910390fd5b610d97848484846111f9565b50505050565b600080610da9836110ae565b9050606654431015610dbf576000915050610e1e565b606754606554610dcf919061216e565b43101580610dde575080606001515b15610df0578060000151915050610e1e565b60675460655443610e01919061224f565b8260000151610e1091906121f5565b610e1a91906121c4565b9150505b919050565b606a5481565b610e31611157565b73ffffffffffffffffffffffffffffffffffffffff16610e4f6108af565b73ffffffffffffffffffffffffffffffffffffffff1614610ea5576040517f08c379a0000000000000000000000000000000000000000000000000000000008152600401610e9c90611fd3565b60405180910390fd5b600073ffffffffffffffffffffffffffffffffffffffff168173ffffffffffffffffffffffffffffffffffffffff161415610f15576040517f08c379a0000000000000000000000000000000000000000000000000000000008152600401610f0c90611f33565b60405180910390fd5b8073ffffffffffffffffffffffffffffffffffffffff16603360009054906101000a900473ffffffffffffffffffffffffffffffffffffffff1673ffffffffffffffffffffffffffffffffffffffff167f8be0079c531659141344cd1fd0a4f28419497f9722a3daafe3b4186f6b6457e060405160405180910390a380603360006101000a81548173ffffffffffffffffffffffffffffffffffffffff021916908373ffffffffffffffffffffffffffffffffffffffff16021790555050565b60665481565b600080606860008473ffffffffffffffffffffffffffffffffffffffff1673ffffffffffffffffffffffffffffffffffffffff168152602001908152602001600020905080915050919050565b6110a98363a9059cbb60e01b8484604051602401611047929190611ecd565b604051602081830303815290604052907bffffffffffffffffffffffffffffffffffffffffffffffffffffffff19166020820180517bffffffffffffffffffffffffffffffffffffffffffffffffffffffff8381831617835250505050611382565b505050565b6110b6611933565b6000606860008473ffffffffffffffffffffffffffffffffffffffff1673ffffffffffffffffffffffffffffffffffffffff16815260200190815260200160002060405180608001604052908160008201548152602001600182015481526020016002820160009054906101000a900460ff161515151581526020016002820160019054906101000a900460ff161515151581525050905080915050919050565b600033905090565b600061116a84610fdb565b905082816000016000828254611180919061216e565b92505081905550818160020160006101000a81548160ff0219169083151502179055508373ffffffffffffffffffffffffffffffffffffffff167f697e6d7320b6a08823f27741374087448ab35ae15392e2feff275172876a7d0984846040516111eb9291906120ce565b60405180910390a250505050565b600060019054906101000a900460ff168061121f575060008054906101000a900460ff16155b61125e576040517f08c379a000000000000000000000000000000000000000000000000000000000815260040161125590611fb3565b60405180910390fd5b60008060019054906101000a900460ff1615905080156112ae576001600060016101000a81548160ff02191690831515021790555060016000806101000a81548160ff0219169083151502179055505b6112b6611449565b828411156112f9576040517f08c379a00000000000000000000000000000000000000000000000000000000081526004016112f090611f53565b60405180910390fd5b84606581905550838561130c919061216e565b6066819055508260678190555081606960006101000a81548173ffffffffffffffffffffffffffffffffffffffff021916908373ffffffffffffffffffffffffffffffffffffffff160217905550801561137b5760008060016101000a81548160ff0219169083151502179055505b5050505050565b60006113e4826040518060400160405280602081526020017f5361666545524332303a206c6f772d6c6576656c2063616c6c206661696c65648152508573ffffffffffffffffffffffffffffffffffffffff166115329092919063ffffffff16565b905060008151111561144457808060200190518101906114049190611b9c565b611443576040517f08c379a000000000000000000000000000000000000000000000000000000000815260040161143a90612073565b60405180910390fd5b5b505050565b600060019054906101000a900460ff168061146f575060008054906101000a900460ff16155b6114ae576040517f08c379a00000000000000000000000000000000000000000000000000000000081526004016114a590611fb3565b60405180910390fd5b60008060019054906101000a900460ff1615905080156114fe576001600060016101000a81548160ff02191690831515021790555060016000806101000a81548160ff0219169083151502179055505b61150661154a565b61150e611623565b801561152f5760008060016101000a81548160ff0219169083151502179055505b50565b606061154184846000856117a5565b90509392505050565b600060019054906101000a900460ff1680611570575060008054906101000a900460ff16155b6115af576040517f08c379a00000000000000000000000000000000000000000000000000000000081526004016115a690611fb3565b60405180910390fd5b60008060019054906101000a900460ff1615905080156115ff576001600060016101000a81548160ff02191690831515021790555060016000806101000a81548160ff0219169083151502179055505b80156116205760008060016101000a81548160ff0219169083151502179055505b50565b600060019054906101000a900460ff1680611649575060008054906101000a900460ff16155b611688576040517f08c379a000000000000000000000000000000000000000000000000000000000815260040161167f90611fb3565b60405180910390fd5b60008060019054906101000a900460ff1615905080156116d8576001600060016101000a81548160ff02191690831515021790555060016000806101000a81548160ff0219169083151502179055505b60006116e2611157565b905080603360006101000a81548173ffffffffffffffffffffffffffffffffffffffff021916908373ffffffffffffffffffffffffffffffffffffffff1602179055508073ffffffffffffffffffffffffffffffffffffffff16600073ffffffffffffffffffffffffffffffffffffffff167f8be0079c531659141344cd1fd0a4f28419497f9722a3daafe3b4186f6b6457e060405160405180910390a35080156117a25760008060016101000a81548160ff0219169083151502179055505b50565b6060824710156117ea576040517f08c379a00000000000000000000000000000000000000000000000000000000081526004016117e190611f73565b60405180910390fd5b6117f3856118b9565b611832576040517f08c379a000000000000000000000000000000000000000000000000000000000815260040161182990611ff3565b60405180910390fd5b6000808673ffffffffffffffffffffffffffffffffffffffff16858760405161185b9190611e9b565b60006040518083038185875af1925050503d8060008114611898576040519150601f19603f3d011682016040523d82523d6000602084013e61189d565b606091505b50915091506118ad8282866118cc565b92505050949350505050565b600080823b905060008111915050919050565b606083156118dc5782905061192c565b6000835111156118ef5782518084602001fd5b816040517f08c379a00000000000000000000000000000000000000000000000000000000081526004016119239190611f11565b60405180910390fd5b9392505050565b604051806080016040528060008152602001600081526020016000151581526020016000151581525090565b60008135905061196e81612684565b92915050565b60008083601f84011261198657600080fd5b8235905067ffffffffffffffff81111561199f57600080fd5b6020830191508360208202830111156119b757600080fd5b9250929050565b60008083601f8401126119d057600080fd5b8235905067ffffffffffffffff8111156119e957600080fd5b602083019150836020820283011115611a0157600080fd5b9250929050565b60008083601f840112611a1a57600080fd5b8235905067ffffffffffffffff811115611a3357600080fd5b602083019150836020820283011115611a4b57600080fd5b9250929050565b600081359050611a618161269b565b92915050565b600081519050611a768161269b565b92915050565b600081359050611a8b816126b2565b92915050565b600081519050611aa0816126b2565b92915050565b600060208284031215611ab857600080fd5b6000611ac68482850161195f565b91505092915050565b60008060008060008060608789031215611ae857600080fd5b600087013567ffffffffffffffff811115611b0257600080fd5b611b0e89828a01611974565b9650965050602087013567ffffffffffffffff811115611b2d57600080fd5b611b3989828a01611a08565b9450945050604087013567ffffffffffffffff811115611b5857600080fd5b611b6489828a016119be565b92509250509295509295509295565b600060208284031215611b8557600080fd5b6000611b9384828501611a52565b91505092915050565b600060208284031215611bae57600080fd5b6000611bbc84828501611a67565b91505092915050565b600060208284031215611bd757600080fd5b6000611be584828501611a91565b91505092915050565b60008060008060808587031215611c0457600080fd5b6000611c1287828801611a7c565b9450506020611c2387828801611a7c565b9350506040611c3487828801611a7c565b9250506060611c458782880161195f565b91505092959194509250565b611c5a81612283565b82525050565b611c6981612295565b82525050565b6000611c7a8261213c565b611c848185612152565b9350611c948185602086016122ef565b80840191505092915050565b611ca9816122cb565b82525050565b6000611cba82612147565b611cc4818561215d565b9350611cd48185602086016122ef565b611cdd816123c9565b840191505092915050565b6000611cf560268361215d565b9150611d00826123da565b604082019050919050565b6000611d1860208361215d565b9150611d2382612429565b602082019050919050565b6000611d3b60268361215d565b9150611d4682612452565b604082019050919050565b6000611d5e60128361215d565b9150611d69826124a1565b602082019050919050565b6000611d81602e8361215d565b9150611d8c826124ca565b604082019050919050565b6000611da460208361215d565b9150611daf82612519565b602082019050919050565b6000611dc7601d8361215d565b9150611dd282612542565b602082019050919050565b6000611dea601e8361215d565b9150611df58261256b565b602082019050919050565b6000611e0d60298361215d565b9150611e1882612594565b604082019050919050565b6000611e3060118361215d565b9150611e3b826125e3565b602082019050919050565b6000611e53602a8361215d565b9150611e5e8261260c565b604082019050919050565b6000611e76600f8361215d565b9150611e818261265b565b602082019050919050565b611e95816122c1565b82525050565b6000611ea78284611c6f565b915081905092915050565b6000602082019050611ec76000830184611c51565b92915050565b6000604082019050611ee26000830185611c51565b611eef6020830184611e8c565b9392505050565b6000602082019050611f0b6000830184611ca0565b92915050565b60006020820190508181036000830152611f2b8184611caf565b905092915050565b60006020820190508181036000830152611f4c81611ce8565b9050919050565b60006020820190508181036000830152611f6c81611d0b565b9050919050565b60006020820190508181036000830152611f8c81611d2e565b9050919050565b60006020820190508181036000830152611fac81611d51565b9050919050565b60006020820190508181036000830152611fcc81611d74565b9050919050565b60006020820190508181036000830152611fec81611d97565b9050919050565b6000602082019050818103600083015261200c81611dba565b9050919050565b6000602082019050818103600083015261202c81611ddd565b9050919050565b6000602082019050818103600083015261204c81611e00565b9050919050565b6000602082019050818103600083015261206c81611e23565b9050919050565b6000602082019050818103600083015261208c81611e46565b9050919050565b600060208201905081810360008301526120ac81611e69565b9050919050565b60006020820190506120c86000830184611e8c565b92915050565b60006040820190506120e36000830185611e8c565b6120f06020830184611c60565b9392505050565b600060808201905061210c6000830187611e8c565b6121196020830186611e8c565b6121266040830185611c60565b6121336060830184611c60565b95945050505050565b600081519050919050565b600081519050919050565b600081905092915050565b600082825260208201905092915050565b6000612179826122c1565b9150612184836122c1565b9250827fffffffffffffffffffffffffffffffffffffffffffffffffffffffffffffffff038211156121b9576121b861236b565b5b828201905092915050565b60006121cf826122c1565b91506121da836122c1565b9250826121ea576121e961239a565b5b828204905092915050565b6000612200826122c1565b915061220b836122c1565b9250817fffffffffffffffffffffffffffffffffffffffffffffffffffffffffffffffff04831182151516156122445761224361236b565b5b828202905092915050565b600061225a826122c1565b9150612265836122c1565b9250828210156122785761227761236b565b5b828203905092915050565b600061228e826122a1565b9050919050565b60008115159050919050565b600073ffffffffffffffffffffffffffffffffffffffff82169050919050565b6000819050919050565b60006122d6826122dd565b9050919050565b60006122e8826122a1565b9050919050565b60005b8381101561230d5780820151818401526020810190506122f2565b8381111561231c576000848401525b50505050565b600061232d826122c1565b91507fffffffffffffffffffffffffffffffffffffffffffffffffffffffffffffffff8214156123605761235f61236b565b5b600182019050919050565b7f4e487b7100000000000000000000000000000000000000000000000000000000600052601160045260246000fd5b7f4e487b7100000000000000000000000000000000000000000000000000000000600052601260045260246000fd5b6000601f19601f8301169050919050565b7f4f776e61626c653a206e6577206f776e657220697320746865207a65726f206160008201527f6464726573730000000000000000000000000000000000000000000000000000602082015250565b7f436c696666206d757374206265206c657373207468616e206475726174696f6e600082015250565b7f416464726573733a20696e73756666696369656e742062616c616e636520666f60008201527f722063616c6c0000000000000000000000000000000000000000000000000000602082015250565b7f4e6f7468696e6720746f2072656c656173650000000000000000000000000000600082015250565b7f496e697469616c697a61626c653a20636f6e747261637420697320616c72656160008201527f647920696e697469616c697a6564000000000000000000000000000000000000602082015250565b7f4f776e61626c653a2063616c6c6572206973206e6f7420746865206f776e6572600082015250565b7f416464726573733a2063616c6c20746f206e6f6e2d636f6e7472616374000000600082015250565b7f596f752063616e74206368616e6765207265766f6361626c6520626f6f6c0000600082015250565b7f416c6c20617267756d656e7473206e6565647320746f2062652074686520736160008201527f6d65206c656e6774680000000000000000000000000000000000000000000000602082015250565b7f43616e6e6f74206265207265766f6b6564000000000000000000000000000000600082015250565b7f5361666545524332303a204552433230206f7065726174696f6e20646964206e60008201527f6f74207375636365656400000000000000000000000000000000000000000000602082015250565b7f416c7265616479207265766f6b65640000000000000000000000000000000000600082015250565b61268d81612283565b811461269857600080fd5b50565b6126a481612295565b81146126af57600080fd5b50565b6126bb816122c1565b81146126c657600080fd5b5056fea2646970667358221220b2cd5af626a04719d4c6f73efead10d778f671b646d20df364b5715010b0caa164736f6c63430008030033",
          "opcodes": "PUSH1 0x80 PUSH1 0x40 MSTORE CALLVALUE DUP1 ISZERO PUSH2 0x10 JUMPI PUSH1 0x0 DUP1 REVERT JUMPDEST POP PUSH2 0x26FF DUP1 PUSH2 0x20 PUSH1 0x0 CODECOPY PUSH1 0x0 RETURN INVALID PUSH1 0x80 PUSH1 0x40 MSTORE CALLVALUE DUP1 ISZERO PUSH2 0x10 JUMPI PUSH1 0x0 DUP1 REVERT JUMPDEST POP PUSH1 0x4 CALLDATASIZE LT PUSH2 0xF5 JUMPI PUSH1 0x0 CALLDATALOAD PUSH1 0xE0 SHR DUP1 PUSH4 0x7B0E5F56 GT PUSH2 0x97 JUMPI DUP1 PUSH4 0xD5A73FDD GT PUSH2 0x66 JUMPI DUP1 PUSH4 0xD5A73FDD EQ PUSH2 0x24F JUMPI DUP1 PUSH4 0xE60E2685 EQ PUSH2 0x27F JUMPI DUP1 PUSH4 0xF2FDE38B EQ PUSH2 0x29D JUMPI DUP1 PUSH4 0xF3640E74 EQ PUSH2 0x2B9 JUMPI PUSH2 0xF5 JUMP JUMPDEST DUP1 PUSH4 0x7B0E5F56 EQ PUSH2 0x1C6 JUMPI DUP1 PUSH4 0x8DA5CB5B EQ PUSH2 0x1F9 JUMPI DUP1 PUSH4 0xA8D7F38C EQ PUSH2 0x217 JUMPI DUP1 PUSH4 0xCDD7B1FD EQ PUSH2 0x233 JUMPI PUSH2 0xF5 JUMP JUMPDEST DUP1 PUSH4 0x2AFD1A7D GT PUSH2 0xD3 JUMPI DUP1 PUSH4 0x2AFD1A7D EQ PUSH2 0x152 JUMPI DUP1 PUSH4 0x327107F7 EQ PUSH2 0x182 JUMPI DUP1 PUSH4 0x715018A6 EQ PUSH2 0x1A0 JUMPI DUP1 PUSH4 0x74A8F103 EQ PUSH2 0x1AA JUMPI PUSH2 0xF5 JUMP JUMPDEST DUP1 PUSH4 0x1514617E EQ PUSH2 0xFA JUMPI DUP1 PUSH4 0x19165587 EQ PUSH2 0x118 JUMPI DUP1 PUSH4 0x254800D4 EQ PUSH2 0x134 JUMPI JUMPDEST PUSH1 0x0 DUP1 REVERT JUMPDEST PUSH2 0x102 PUSH2 0x2D7 JUMP JUMPDEST PUSH1 0x40 MLOAD PUSH2 0x10F SWAP2 SWAP1 PUSH2 0x20B3 JUMP JUMPDEST PUSH1 0x40 MLOAD DUP1 SWAP2 SUB SWAP1 RETURN JUMPDEST PUSH2 0x132 PUSH1 0x4 DUP1 CALLDATASIZE SUB DUP2 ADD SWAP1 PUSH2 0x12D SWAP2 SWAP1 PUSH2 0x1AA6 JUMP JUMPDEST PUSH2 0x2DD JUMP JUMPDEST STOP JUMPDEST PUSH2 0x13C PUSH2 0x3F5 JUMP JUMPDEST PUSH1 0x40 MLOAD PUSH2 0x149 SWAP2 SWAP1 PUSH2 0x20B3 JUMP JUMPDEST PUSH1 0x40 MLOAD DUP1 SWAP2 SUB SWAP1 RETURN JUMPDEST PUSH2 0x16C PUSH1 0x4 DUP1 CALLDATASIZE SUB DUP2 ADD SWAP1 PUSH2 0x167 SWAP2 SWAP1 PUSH2 0x1AA6 JUMP JUMPDEST PUSH2 0x3FB JUMP JUMPDEST PUSH1 0x40 MLOAD PUSH2 0x179 SWAP2 SWAP1 PUSH2 0x20B3 JUMP JUMPDEST PUSH1 0x40 MLOAD DUP1 SWAP2 SUB SWAP1 RETURN JUMPDEST PUSH2 0x18A PUSH2 0x429 JUMP JUMPDEST PUSH1 0x40 MLOAD PUSH2 0x197 SWAP2 SWAP1 PUSH2 0x1EF6 JUMP JUMPDEST PUSH1 0x40 MLOAD DUP1 SWAP2 SUB SWAP1 RETURN JUMPDEST PUSH2 0x1A8 PUSH2 0x44F JUMP JUMPDEST STOP JUMPDEST PUSH2 0x1C4 PUSH1 0x4 DUP1 CALLDATASIZE SUB DUP2 ADD SWAP1 PUSH2 0x1BF SWAP2 SWAP1 PUSH2 0x1AA6 JUMP JUMPDEST PUSH2 0x58C JUMP JUMPDEST STOP JUMPDEST PUSH2 0x1E0 PUSH1 0x4 DUP1 CALLDATASIZE SUB DUP2 ADD SWAP1 PUSH2 0x1DB SWAP2 SWAP1 PUSH2 0x1AA6 JUMP JUMPDEST PUSH2 0x865 JUMP JUMPDEST PUSH1 0x40 MLOAD PUSH2 0x1F0 SWAP5 SWAP4 SWAP3 SWAP2 SWAP1 PUSH2 0x20F7 JUMP JUMPDEST PUSH1 0x40 MLOAD DUP1 SWAP2 SUB SWAP1 RETURN JUMPDEST PUSH2 0x201 PUSH2 0x8AF JUMP JUMPDEST PUSH1 0x40 MLOAD PUSH2 0x20E SWAP2 SWAP1 PUSH2 0x1EB2 JUMP JUMPDEST PUSH1 0x40 MLOAD DUP1 SWAP2 SUB SWAP1 RETURN JUMPDEST PUSH2 0x231 PUSH1 0x4 DUP1 CALLDATASIZE SUB DUP2 ADD SWAP1 PUSH2 0x22C SWAP2 SWAP1 PUSH2 0x1ACF JUMP JUMPDEST PUSH2 0x8D9 JUMP JUMPDEST STOP JUMPDEST PUSH2 0x24D PUSH1 0x4 DUP1 CALLDATASIZE SUB DUP2 ADD SWAP1 PUSH2 0x248 SWAP2 SWAP1 PUSH2 0x1BEE JUMP JUMPDEST PUSH2 0xD0F JUMP JUMPDEST STOP JUMPDEST PUSH2 0x269 PUSH1 0x4 DUP1 CALLDATASIZE SUB DUP2 ADD SWAP1 PUSH2 0x264 SWAP2 SWAP1 PUSH2 0x1AA6 JUMP JUMPDEST PUSH2 0xD9D JUMP JUMPDEST PUSH1 0x40 MLOAD PUSH2 0x276 SWAP2 SWAP1 PUSH2 0x20B3 JUMP JUMPDEST PUSH1 0x40 MLOAD DUP1 SWAP2 SUB SWAP1 RETURN JUMPDEST PUSH2 0x287 PUSH2 0xE23 JUMP JUMPDEST PUSH1 0x40 MLOAD PUSH2 0x294 SWAP2 SWAP1 PUSH2 0x20B3 JUMP JUMPDEST PUSH1 0x40 MLOAD DUP1 SWAP2 SUB SWAP1 RETURN JUMPDEST PUSH2 0x2B7 PUSH1 0x4 DUP1 CALLDATASIZE SUB DUP2 ADD SWAP1 PUSH2 0x2B2 SWAP2 SWAP1 PUSH2 0x1AA6 JUMP JUMPDEST PUSH2 0xE29 JUMP JUMPDEST STOP JUMPDEST PUSH2 0x2C1 PUSH2 0xFD5 JUMP JUMPDEST PUSH1 0x40 MLOAD PUSH2 0x2CE SWAP2 SWAP1 PUSH2 0x20B3 JUMP JUMPDEST PUSH1 0x40 MLOAD DUP1 SWAP2 SUB SWAP1 RETURN JUMPDEST PUSH1 0x67 SLOAD DUP2 JUMP JUMPDEST PUSH1 0x0 PUSH2 0x2E8 DUP3 PUSH2 0x3FB JUMP JUMPDEST SWAP1 POP PUSH1 0x0 DUP2 GT PUSH2 0x32D JUMPI PUSH1 0x40 MLOAD PUSH32 0x8C379A000000000000000000000000000000000000000000000000000000000 DUP2 MSTORE PUSH1 0x4 ADD PUSH2 0x324 SWAP1 PUSH2 0x1F93 JUMP JUMPDEST PUSH1 0x40 MLOAD DUP1 SWAP2 SUB SWAP1 REVERT JUMPDEST PUSH1 0x0 PUSH2 0x338 DUP4 PUSH2 0xFDB JUMP JUMPDEST SWAP1 POP DUP2 DUP2 PUSH1 0x1 ADD PUSH1 0x0 DUP3 DUP3 SLOAD PUSH2 0x34E SWAP2 SWAP1 PUSH2 0x216E JUMP JUMPDEST SWAP3 POP POP DUP2 SWAP1 SSTORE POP PUSH2 0x3A2 DUP4 DUP4 PUSH1 0x69 PUSH1 0x0 SWAP1 SLOAD SWAP1 PUSH2 0x100 EXP SWAP1 DIV PUSH20 0xFFFFFFFFFFFFFFFFFFFFFFFFFFFFFFFFFFFFFFFF AND PUSH20 0xFFFFFFFFFFFFFFFFFFFFFFFFFFFFFFFFFFFFFFFF AND PUSH2 0x1028 SWAP1 SWAP3 SWAP2 SWAP1 PUSH4 0xFFFFFFFF AND JUMP JUMPDEST DUP3 PUSH20 0xFFFFFFFFFFFFFFFFFFFFFFFFFFFFFFFFFFFFFFFF AND PUSH32 0xB21FB52D5749B80F3182F8C6992236B5E5576681880914484D7F4C9B062E619E DUP4 PUSH1 0x40 MLOAD PUSH2 0x3E8 SWAP2 SWAP1 PUSH2 0x20B3 JUMP JUMPDEST PUSH1 0x40 MLOAD DUP1 SWAP2 SUB SWAP1 LOG2 POP POP POP JUMP JUMPDEST PUSH1 0x65 SLOAD DUP2 JUMP JUMPDEST PUSH1 0x0 DUP1 PUSH2 0x407 DUP4 PUSH2 0x10AE JUMP JUMPDEST SWAP1 POP DUP1 PUSH1 0x20 ADD MLOAD PUSH2 0x417 DUP5 PUSH2 0xD9D JUMP JUMPDEST PUSH2 0x421 SWAP2 SWAP1 PUSH2 0x224F JUMP JUMPDEST SWAP2 POP POP SWAP2 SWAP1 POP JUMP JUMPDEST PUSH1 0x69 PUSH1 0x0 SWAP1 SLOAD SWAP1 PUSH2 0x100 EXP SWAP1 DIV PUSH20 0xFFFFFFFFFFFFFFFFFFFFFFFFFFFFFFFFFFFFFFFF AND DUP2 JUMP JUMPDEST PUSH2 0x457 PUSH2 0x1157 JUMP JUMPDEST PUSH20 0xFFFFFFFFFFFFFFFFFFFFFFFFFFFFFFFFFFFFFFFF AND PUSH2 0x475 PUSH2 0x8AF JUMP JUMPDEST PUSH20 0xFFFFFFFFFFFFFFFFFFFFFFFFFFFFFFFFFFFFFFFF AND EQ PUSH2 0x4CB JUMPI PUSH1 0x40 MLOAD PUSH32 0x8C379A000000000000000000000000000000000000000000000000000000000 DUP2 MSTORE PUSH1 0x4 ADD PUSH2 0x4C2 SWAP1 PUSH2 0x1FD3 JUMP JUMPDEST PUSH1 0x40 MLOAD DUP1 SWAP2 SUB SWAP1 REVERT JUMPDEST PUSH1 0x0 PUSH20 0xFFFFFFFFFFFFFFFFFFFFFFFFFFFFFFFFFFFFFFFF AND PUSH1 0x33 PUSH1 0x0 SWAP1 SLOAD SWAP1 PUSH2 0x100 EXP SWAP1 DIV PUSH20 0xFFFFFFFFFFFFFFFFFFFFFFFFFFFFFFFFFFFFFFFF AND PUSH20 0xFFFFFFFFFFFFFFFFFFFFFFFFFFFFFFFFFFFFFFFF AND PUSH32 0x8BE0079C531659141344CD1FD0A4F28419497F9722A3DAAFE3B4186F6B6457E0 PUSH1 0x40 MLOAD PUSH1 0x40 MLOAD DUP1 SWAP2 SUB SWAP1 LOG3 PUSH1 0x0 PUSH1 0x33 PUSH1 0x0 PUSH2 0x100 EXP DUP2 SLOAD DUP2 PUSH20 0xFFFFFFFFFFFFFFFFFFFFFFFFFFFFFFFFFFFFFFFF MUL NOT AND SWAP1 DUP4 PUSH20 0xFFFFFFFFFFFFFFFFFFFFFFFFFFFFFFFFFFFFFFFF AND MUL OR SWAP1 SSTORE POP JUMP JUMPDEST PUSH2 0x594 PUSH2 0x1157 JUMP JUMPDEST PUSH20 0xFFFFFFFFFFFFFFFFFFFFFFFFFFFFFFFFFFFFFFFF AND PUSH2 0x5B2 PUSH2 0x8AF JUMP JUMPDEST PUSH20 0xFFFFFFFFFFFFFFFFFFFFFFFFFFFFFFFFFFFFFFFF AND EQ PUSH2 0x608 JUMPI PUSH1 0x40 MLOAD PUSH32 0x8C379A000000000000000000000000000000000000000000000000000000000 DUP2 MSTORE PUSH1 0x4 ADD PUSH2 0x5FF SWAP1 PUSH2 0x1FD3 JUMP JUMPDEST PUSH1 0x40 MLOAD DUP1 SWAP2 SUB SWAP1 REVERT JUMPDEST PUSH1 0x0 PUSH2 0x613 DUP3 PUSH2 0xFDB JUMP JUMPDEST SWAP1 POP DUP1 PUSH1 0x2 ADD PUSH1 0x0 SWAP1 SLOAD SWAP1 PUSH2 0x100 EXP SWAP1 DIV PUSH1 0xFF AND PUSH2 0x666 JUMPI PUSH1 0x40 MLOAD PUSH32 0x8C379A000000000000000000000000000000000000000000000000000000000 DUP2 MSTORE PUSH1 0x4 ADD PUSH2 0x65D SWAP1 PUSH2 0x2053 JUMP JUMPDEST PUSH1 0x40 MLOAD DUP1 SWAP2 SUB SWAP1 REVERT JUMPDEST DUP1 PUSH1 0x2 ADD PUSH1 0x1 SWAP1 SLOAD SWAP1 PUSH2 0x100 EXP SWAP1 DIV PUSH1 0xFF AND ISZERO PUSH2 0x6B8 JUMPI PUSH1 0x40 MLOAD PUSH32 0x8C379A000000000000000000000000000000000000000000000000000000000 DUP2 MSTORE PUSH1 0x4 ADD PUSH2 0x6AF SWAP1 PUSH2 0x2093 JUMP JUMPDEST PUSH1 0x40 MLOAD DUP1 SWAP2 SUB SWAP1 REVERT JUMPDEST PUSH1 0x0 PUSH2 0x6C3 DUP4 PUSH2 0x3FB JUMP JUMPDEST SWAP1 POP DUP1 DUP3 PUSH1 0x1 ADD PUSH1 0x0 DUP3 DUP3 SLOAD PUSH2 0x6D9 SWAP2 SWAP1 PUSH2 0x216E JUMP JUMPDEST SWAP3 POP POP DUP2 SWAP1 SSTORE POP PUSH1 0x0 DUP3 PUSH1 0x1 ADD SLOAD DUP4 PUSH1 0x0 ADD SLOAD PUSH2 0x6F6 SWAP2 SWAP1 PUSH2 0x224F JUMP JUMPDEST SWAP1 POP PUSH1 0x1 DUP4 PUSH1 0x2 ADD PUSH1 0x1 PUSH2 0x100 EXP DUP2 SLOAD DUP2 PUSH1 0xFF MUL NOT AND SWAP1 DUP4 ISZERO ISZERO MUL OR SWAP1 SSTORE POP DUP3 PUSH1 0x1 ADD SLOAD DUP4 PUSH1 0x0 ADD DUP2 SWAP1 SSTORE POP PUSH2 0x76F DUP5 DUP4 PUSH1 0x69 PUSH1 0x0 SWAP1 SLOAD SWAP1 PUSH2 0x100 EXP SWAP1 DIV PUSH20 0xFFFFFFFFFFFFFFFFFFFFFFFFFFFFFFFFFFFFFFFF AND PUSH20 0xFFFFFFFFFFFFFFFFFFFFFFFFFFFFFFFFFFFFFFFF AND PUSH2 0x1028 SWAP1 SWAP3 SWAP2 SWAP1 PUSH4 0xFFFFFFFF AND JUMP JUMPDEST PUSH2 0x7C3 PUSH2 0x77A PUSH2 0x8AF JUMP JUMPDEST DUP3 PUSH1 0x69 PUSH1 0x0 SWAP1 SLOAD SWAP1 PUSH2 0x100 EXP SWAP1 DIV PUSH20 0xFFFFFFFFFFFFFFFFFFFFFFFFFFFFFFFFFFFFFFFF AND PUSH20 0xFFFFFFFFFFFFFFFFFFFFFFFFFFFFFFFFFFFFFFFF AND PUSH2 0x1028 SWAP1 SWAP3 SWAP2 SWAP1 PUSH4 0xFFFFFFFF AND JUMP JUMPDEST DUP4 PUSH20 0xFFFFFFFFFFFFFFFFFFFFFFFFFFFFFFFFFFFFFFFF AND PUSH32 0xB21FB52D5749B80F3182F8C6992236B5E5576681880914484D7F4C9B062E619E DUP4 PUSH1 0x40 MLOAD PUSH2 0x809 SWAP2 SWAP1 PUSH2 0x20B3 JUMP JUMPDEST PUSH1 0x40 MLOAD DUP1 SWAP2 SUB SWAP1 LOG2 DUP4 PUSH20 0xFFFFFFFFFFFFFFFFFFFFFFFFFFFFFFFFFFFFFFFF AND PUSH32 0x713B90881AD62C4FA8AB6BD9197FA86481FC0C11B2EDBA60026514281B2DBAC4 DUP3 PUSH1 0x40 MLOAD PUSH2 0x857 SWAP2 SWAP1 PUSH2 0x20B3 JUMP JUMPDEST PUSH1 0x40 MLOAD DUP1 SWAP2 SUB SWAP1 LOG2 POP POP POP POP JUMP JUMPDEST PUSH1 0x68 PUSH1 0x20 MSTORE DUP1 PUSH1 0x0 MSTORE PUSH1 0x40 PUSH1 0x0 KECCAK256 PUSH1 0x0 SWAP2 POP SWAP1 POP DUP1 PUSH1 0x0 ADD SLOAD SWAP1 DUP1 PUSH1 0x1 ADD SLOAD SWAP1 DUP1 PUSH1 0x2 ADD PUSH1 0x0 SWAP1 SLOAD SWAP1 PUSH2 0x100 EXP SWAP1 DIV PUSH1 0xFF AND SWAP1 DUP1 PUSH1 0x2 ADD PUSH1 0x1 SWAP1 SLOAD SWAP1 PUSH2 0x100 EXP SWAP1 DIV PUSH1 0xFF AND SWAP1 POP DUP5 JUMP JUMPDEST PUSH1 0x0 PUSH1 0x33 PUSH1 0x0 SWAP1 SLOAD SWAP1 PUSH2 0x100 EXP SWAP1 DIV PUSH20 0xFFFFFFFFFFFFFFFFFFFFFFFFFFFFFFFFFFFFFFFF AND SWAP1 POP SWAP1 JUMP JUMPDEST PUSH2 0x8E1 PUSH2 0x1157 JUMP JUMPDEST PUSH20 0xFFFFFFFFFFFFFFFFFFFFFFFFFFFFFFFFFFFFFFFF AND PUSH2 0x8FF PUSH2 0x8AF JUMP JUMPDEST PUSH20 0xFFFFFFFFFFFFFFFFFFFFFFFFFFFFFFFFFFFFFFFF AND EQ PUSH2 0x955 JUMPI PUSH1 0x40 MLOAD PUSH32 0x8C379A000000000000000000000000000000000000000000000000000000000 DUP2 MSTORE PUSH1 0x4 ADD PUSH2 0x94C SWAP1 PUSH2 0x1FD3 JUMP JUMPDEST PUSH1 0x40 MLOAD DUP1 SWAP2 SUB SWAP1 REVERT JUMPDEST DUP4 DUP4 SWAP1 POP DUP7 DUP7 SWAP1 POP EQ DUP1 ISZERO PUSH2 0x96F JUMPI POP DUP2 DUP2 SWAP1 POP DUP7 DUP7 SWAP1 POP EQ JUMPDEST PUSH2 0x9AE JUMPI PUSH1 0x40 MLOAD PUSH32 0x8C379A000000000000000000000000000000000000000000000000000000000 DUP2 MSTORE PUSH1 0x4 ADD PUSH2 0x9A5 SWAP1 PUSH2 0x2033 JUMP JUMPDEST PUSH1 0x40 MLOAD DUP1 SWAP2 SUB SWAP1 REVERT JUMPDEST PUSH1 0x0 DUP1 DUP6 DUP6 SWAP1 POP SWAP1 POP PUSH1 0x0 JUMPDEST DUP2 DUP2 LT ISZERO PUSH2 0xA22 JUMPI DUP7 DUP7 DUP3 DUP2 DUP2 LT PUSH2 0x9FB JUMPI PUSH32 0x4E487B7100000000000000000000000000000000000000000000000000000000 PUSH1 0x0 MSTORE PUSH1 0x32 PUSH1 0x4 MSTORE PUSH1 0x24 PUSH1 0x0 REVERT JUMPDEST SWAP1 POP PUSH1 0x20 MUL ADD CALLDATALOAD DUP4 PUSH2 0xA0D SWAP2 SWAP1 PUSH2 0x216E JUMP JUMPDEST SWAP3 POP DUP1 DUP1 PUSH2 0xA1A SWAP1 PUSH2 0x2322 JUMP JUMPDEST SWAP2 POP POP PUSH2 0x9BA JUMP JUMPDEST POP DUP2 PUSH1 0x6A SLOAD PUSH1 0x69 PUSH1 0x0 SWAP1 SLOAD SWAP1 PUSH2 0x100 EXP SWAP1 DIV PUSH20 0xFFFFFFFFFFFFFFFFFFFFFFFFFFFFFFFFFFFFFFFF AND PUSH20 0xFFFFFFFFFFFFFFFFFFFFFFFFFFFFFFFFFFFFFFFF AND PUSH4 0x70A08231 ADDRESS PUSH1 0x40 MLOAD DUP3 PUSH4 0xFFFFFFFF AND PUSH1 0xE0 SHL DUP2 MSTORE PUSH1 0x4 ADD PUSH2 0xA82 SWAP2 SWAP1 PUSH2 0x1EB2 JUMP JUMPDEST PUSH1 0x20 PUSH1 0x40 MLOAD DUP1 DUP4 SUB DUP2 DUP7 DUP1 EXTCODESIZE ISZERO DUP1 ISZERO PUSH2 0xA9A JUMPI PUSH1 0x0 DUP1 REVERT JUMPDEST POP GAS STATICCALL ISZERO DUP1 ISZERO PUSH2 0xAAE JUMPI RETURNDATASIZE PUSH1 0x0 DUP1 RETURNDATACOPY RETURNDATASIZE PUSH1 0x0 REVERT JUMPDEST POP POP POP POP PUSH1 0x40 MLOAD RETURNDATASIZE PUSH1 0x1F NOT PUSH1 0x1F DUP3 ADD AND DUP3 ADD DUP1 PUSH1 0x40 MSTORE POP DUP2 ADD SWAP1 PUSH2 0xAD2 SWAP2 SWAP1 PUSH2 0x1BC5 JUMP JUMPDEST PUSH2 0xADC SWAP2 SWAP1 PUSH2 0x224F JUMP JUMPDEST LT ISZERO PUSH2 0xAE7 JUMPI PUSH1 0x0 DUP1 REVERT JUMPDEST PUSH1 0x0 DUP1 PUSH1 0x0 SWAP1 POP JUMPDEST DUP3 DUP2 LT ISZERO PUSH2 0xCEA JUMPI PUSH2 0xB4D DUP11 DUP11 DUP4 DUP2 DUP2 LT PUSH2 0xB33 JUMPI PUSH32 0x4E487B7100000000000000000000000000000000000000000000000000000000 PUSH1 0x0 MSTORE PUSH1 0x32 PUSH1 0x4 MSTORE PUSH1 0x24 PUSH1 0x0 REVERT JUMPDEST SWAP1 POP PUSH1 0x20 MUL ADD PUSH1 0x20 DUP2 ADD SWAP1 PUSH2 0xB48 SWAP2 SWAP1 PUSH2 0x1AA6 JUMP JUMPDEST PUSH2 0xFDB JUMP JUMPDEST SWAP2 POP DUP2 PUSH1 0x2 ADD PUSH1 0x0 SWAP1 SLOAD SWAP1 PUSH2 0x100 EXP SWAP1 DIV PUSH1 0xFF AND ISZERO ISZERO DUP7 DUP7 DUP4 DUP2 DUP2 LT PUSH2 0xB9C JUMPI PUSH32 0x4E487B7100000000000000000000000000000000000000000000000000000000 PUSH1 0x0 MSTORE PUSH1 0x32 PUSH1 0x4 MSTORE PUSH1 0x24 PUSH1 0x0 REVERT JUMPDEST SWAP1 POP PUSH1 0x20 MUL ADD PUSH1 0x20 DUP2 ADD SWAP1 PUSH2 0xBB1 SWAP2 SWAP1 PUSH2 0x1B73 JUMP JUMPDEST ISZERO ISZERO EQ PUSH2 0xBF3 JUMPI PUSH1 0x40 MLOAD PUSH32 0x8C379A000000000000000000000000000000000000000000000000000000000 DUP2 MSTORE PUSH1 0x4 ADD PUSH2 0xBEA SWAP1 PUSH2 0x2013 JUMP JUMPDEST PUSH1 0x40 MLOAD DUP1 SWAP2 SUB SWAP1 REVERT JUMPDEST PUSH2 0xCD7 DUP11 DUP11 DUP4 DUP2 DUP2 LT PUSH2 0xC2F JUMPI PUSH32 0x4E487B7100000000000000000000000000000000000000000000000000000000 PUSH1 0x0 MSTORE PUSH1 0x32 PUSH1 0x4 MSTORE PUSH1 0x24 PUSH1 0x0 REVERT JUMPDEST SWAP1 POP PUSH1 0x20 MUL ADD PUSH1 0x20 DUP2 ADD SWAP1 PUSH2 0xC44 SWAP2 SWAP1 PUSH2 0x1AA6 JUMP JUMPDEST DUP10 DUP10 DUP5 DUP2 DUP2 LT PUSH2 0xC7D JUMPI PUSH32 0x4E487B7100000000000000000000000000000000000000000000000000000000 PUSH1 0x0 MSTORE PUSH1 0x32 PUSH1 0x4 MSTORE PUSH1 0x24 PUSH1 0x0 REVERT JUMPDEST SWAP1 POP PUSH1 0x20 MUL ADD CALLDATALOAD DUP9 DUP9 DUP6 DUP2 DUP2 LT PUSH2 0xCBD JUMPI PUSH32 0x4E487B7100000000000000000000000000000000000000000000000000000000 PUSH1 0x0 MSTORE PUSH1 0x32 PUSH1 0x4 MSTORE PUSH1 0x24 PUSH1 0x0 REVERT JUMPDEST SWAP1 POP PUSH1 0x20 MUL ADD PUSH1 0x20 DUP2 ADD SWAP1 PUSH2 0xCD2 SWAP2 SWAP1 PUSH2 0x1B73 JUMP JUMPDEST PUSH2 0x115F JUMP JUMPDEST DUP1 DUP1 PUSH2 0xCE2 SWAP1 PUSH2 0x2322 JUMP JUMPDEST SWAP2 POP POP PUSH2 0xAEF JUMP JUMPDEST POP DUP3 PUSH1 0x6A PUSH1 0x0 DUP3 DUP3 SLOAD PUSH2 0xCFD SWAP2 SWAP1 PUSH2 0x216E JUMP JUMPDEST SWAP3 POP POP DUP2 SWAP1 SSTORE POP POP POP POP POP POP POP POP POP POP JUMP JUMPDEST PUSH2 0xD17 PUSH2 0x1157 JUMP JUMPDEST PUSH20 0xFFFFFFFFFFFFFFFFFFFFFFFFFFFFFFFFFFFFFFFF AND PUSH2 0xD35 PUSH2 0x8AF JUMP JUMPDEST PUSH20 0xFFFFFFFFFFFFFFFFFFFFFFFFFFFFFFFFFFFFFFFF AND EQ PUSH2 0xD8B JUMPI PUSH1 0x40 MLOAD PUSH32 0x8C379A000000000000000000000000000000000000000000000000000000000 DUP2 MSTORE PUSH1 0x4 ADD PUSH2 0xD82 SWAP1 PUSH2 0x1FD3 JUMP JUMPDEST PUSH1 0x40 MLOAD DUP1 SWAP2 SUB SWAP1 REVERT JUMPDEST PUSH2 0xD97 DUP5 DUP5 DUP5 DUP5 PUSH2 0x11F9 JUMP JUMPDEST POP POP POP POP JUMP JUMPDEST PUSH1 0x0 DUP1 PUSH2 0xDA9 DUP4 PUSH2 0x10AE JUMP JUMPDEST SWAP1 POP PUSH1 0x66 SLOAD NUMBER LT ISZERO PUSH2 0xDBF JUMPI PUSH1 0x0 SWAP2 POP POP PUSH2 0xE1E JUMP JUMPDEST PUSH1 0x67 SLOAD PUSH1 0x65 SLOAD PUSH2 0xDCF SWAP2 SWAP1 PUSH2 0x216E JUMP JUMPDEST NUMBER LT ISZERO DUP1 PUSH2 0xDDE JUMPI POP DUP1 PUSH1 0x60 ADD MLOAD JUMPDEST ISZERO PUSH2 0xDF0 JUMPI DUP1 PUSH1 0x0 ADD MLOAD SWAP2 POP POP PUSH2 0xE1E JUMP JUMPDEST PUSH1 0x67 SLOAD PUSH1 0x65 SLOAD NUMBER PUSH2 0xE01 SWAP2 SWAP1 PUSH2 0x224F JUMP JUMPDEST DUP3 PUSH1 0x0 ADD MLOAD PUSH2 0xE10 SWAP2 SWAP1 PUSH2 0x21F5 JUMP JUMPDEST PUSH2 0xE1A SWAP2 SWAP1 PUSH2 0x21C4 JUMP JUMPDEST SWAP2 POP POP JUMPDEST SWAP2 SWAP1 POP JUMP JUMPDEST PUSH1 0x6A SLOAD DUP2 JUMP JUMPDEST PUSH2 0xE31 PUSH2 0x1157 JUMP JUMPDEST PUSH20 0xFFFFFFFFFFFFFFFFFFFFFFFFFFFFFFFFFFFFFFFF AND PUSH2 0xE4F PUSH2 0x8AF JUMP JUMPDEST PUSH20 0xFFFFFFFFFFFFFFFFFFFFFFFFFFFFFFFFFFFFFFFF AND EQ PUSH2 0xEA5 JUMPI PUSH1 0x40 MLOAD PUSH32 0x8C379A000000000000000000000000000000000000000000000000000000000 DUP2 MSTORE PUSH1 0x4 ADD PUSH2 0xE9C SWAP1 PUSH2 0x1FD3 JUMP JUMPDEST PUSH1 0x40 MLOAD DUP1 SWAP2 SUB SWAP1 REVERT JUMPDEST PUSH1 0x0 PUSH20 0xFFFFFFFFFFFFFFFFFFFFFFFFFFFFFFFFFFFFFFFF AND DUP2 PUSH20 0xFFFFFFFFFFFFFFFFFFFFFFFFFFFFFFFFFFFFFFFF AND EQ ISZERO PUSH2 0xF15 JUMPI PUSH1 0x40 MLOAD PUSH32 0x8C379A000000000000000000000000000000000000000000000000000000000 DUP2 MSTORE PUSH1 0x4 ADD PUSH2 0xF0C SWAP1 PUSH2 0x1F33 JUMP JUMPDEST PUSH1 0x40 MLOAD DUP1 SWAP2 SUB SWAP1 REVERT JUMPDEST DUP1 PUSH20 0xFFFFFFFFFFFFFFFFFFFFFFFFFFFFFFFFFFFFFFFF AND PUSH1 0x33 PUSH1 0x0 SWAP1 SLOAD SWAP1 PUSH2 0x100 EXP SWAP1 DIV PUSH20 0xFFFFFFFFFFFFFFFFFFFFFFFFFFFFFFFFFFFFFFFF AND PUSH20 0xFFFFFFFFFFFFFFFFFFFFFFFFFFFFFFFFFFFFFFFF AND PUSH32 0x8BE0079C531659141344CD1FD0A4F28419497F9722A3DAAFE3B4186F6B6457E0 PUSH1 0x40 MLOAD PUSH1 0x40 MLOAD DUP1 SWAP2 SUB SWAP1 LOG3 DUP1 PUSH1 0x33 PUSH1 0x0 PUSH2 0x100 EXP DUP2 SLOAD DUP2 PUSH20 0xFFFFFFFFFFFFFFFFFFFFFFFFFFFFFFFFFFFFFFFF MUL NOT AND SWAP1 DUP4 PUSH20 0xFFFFFFFFFFFFFFFFFFFFFFFFFFFFFFFFFFFFFFFF AND MUL OR SWAP1 SSTORE POP POP JUMP JUMPDEST PUSH1 0x66 SLOAD DUP2 JUMP JUMPDEST PUSH1 0x0 DUP1 PUSH1 0x68 PUSH1 0x0 DUP5 PUSH20 0xFFFFFFFFFFFFFFFFFFFFFFFFFFFFFFFFFFFFFFFF AND PUSH20 0xFFFFFFFFFFFFFFFFFFFFFFFFFFFFFFFFFFFFFFFF AND DUP2 MSTORE PUSH1 0x20 ADD SWAP1 DUP2 MSTORE PUSH1 0x20 ADD PUSH1 0x0 KECCAK256 SWAP1 POP DUP1 SWAP2 POP POP SWAP2 SWAP1 POP JUMP JUMPDEST PUSH2 0x10A9 DUP4 PUSH4 0xA9059CBB PUSH1 0xE0 SHL DUP5 DUP5 PUSH1 0x40 MLOAD PUSH1 0x24 ADD PUSH2 0x1047 SWAP3 SWAP2 SWAP1 PUSH2 0x1ECD JUMP JUMPDEST PUSH1 0x40 MLOAD PUSH1 0x20 DUP2 DUP4 SUB SUB DUP2 MSTORE SWAP1 PUSH1 0x40 MSTORE SWAP1 PUSH28 0xFFFFFFFFFFFFFFFFFFFFFFFFFFFFFFFFFFFFFFFFFFFFFFFFFFFFFFFF NOT AND PUSH1 0x20 DUP3 ADD DUP1 MLOAD PUSH28 0xFFFFFFFFFFFFFFFFFFFFFFFFFFFFFFFFFFFFFFFFFFFFFFFFFFFFFFFF DUP4 DUP2 DUP4 AND OR DUP4 MSTORE POP POP POP POP PUSH2 0x1382 JUMP JUMPDEST POP POP POP JUMP JUMPDEST PUSH2 0x10B6 PUSH2 0x1933 JUMP JUMPDEST PUSH1 0x0 PUSH1 0x68 PUSH1 0x0 DUP5 PUSH20 0xFFFFFFFFFFFFFFFFFFFFFFFFFFFFFFFFFFFFFFFF AND PUSH20 0xFFFFFFFFFFFFFFFFFFFFFFFFFFFFFFFFFFFFFFFF AND DUP2 MSTORE PUSH1 0x20 ADD SWAP1 DUP2 MSTORE PUSH1 0x20 ADD PUSH1 0x0 KECCAK256 PUSH1 0x40 MLOAD DUP1 PUSH1 0x80 ADD PUSH1 0x40 MSTORE SWAP1 DUP2 PUSH1 0x0 DUP3 ADD SLOAD DUP2 MSTORE PUSH1 0x20 ADD PUSH1 0x1 DUP3 ADD SLOAD DUP2 MSTORE PUSH1 0x20 ADD PUSH1 0x2 DUP3 ADD PUSH1 0x0 SWAP1 SLOAD SWAP1 PUSH2 0x100 EXP SWAP1 DIV PUSH1 0xFF AND ISZERO ISZERO ISZERO ISZERO DUP2 MSTORE PUSH1 0x20 ADD PUSH1 0x2 DUP3 ADD PUSH1 0x1 SWAP1 SLOAD SWAP1 PUSH2 0x100 EXP SWAP1 DIV PUSH1 0xFF AND ISZERO ISZERO ISZERO ISZERO DUP2 MSTORE POP POP SWAP1 POP DUP1 SWAP2 POP POP SWAP2 SWAP1 POP JUMP JUMPDEST PUSH1 0x0 CALLER SWAP1 POP SWAP1 JUMP JUMPDEST PUSH1 0x0 PUSH2 0x116A DUP5 PUSH2 0xFDB JUMP JUMPDEST SWAP1 POP DUP3 DUP2 PUSH1 0x0 ADD PUSH1 0x0 DUP3 DUP3 SLOAD PUSH2 0x1180 SWAP2 SWAP1 PUSH2 0x216E JUMP JUMPDEST SWAP3 POP POP DUP2 SWAP1 SSTORE POP DUP2 DUP2 PUSH1 0x2 ADD PUSH1 0x0 PUSH2 0x100 EXP DUP2 SLOAD DUP2 PUSH1 0xFF MUL NOT AND SWAP1 DUP4 ISZERO ISZERO MUL OR SWAP1 SSTORE POP DUP4 PUSH20 0xFFFFFFFFFFFFFFFFFFFFFFFFFFFFFFFFFFFFFFFF AND PUSH32 0x697E6D7320B6A08823F27741374087448AB35AE15392E2FEFF275172876A7D09 DUP5 DUP5 PUSH1 0x40 MLOAD PUSH2 0x11EB SWAP3 SWAP2 SWAP1 PUSH2 0x20CE JUMP JUMPDEST PUSH1 0x40 MLOAD DUP1 SWAP2 SUB SWAP1 LOG2 POP POP POP POP JUMP JUMPDEST PUSH1 0x0 PUSH1 0x1 SWAP1 SLOAD SWAP1 PUSH2 0x100 EXP SWAP1 DIV PUSH1 0xFF AND DUP1 PUSH2 0x121F JUMPI POP PUSH1 0x0 DUP1 SLOAD SWAP1 PUSH2 0x100 EXP SWAP1 DIV PUSH1 0xFF AND ISZERO JUMPDEST PUSH2 0x125E JUMPI PUSH1 0x40 MLOAD PUSH32 0x8C379A000000000000000000000000000000000000000000000000000000000 DUP2 MSTORE PUSH1 0x4 ADD PUSH2 0x1255 SWAP1 PUSH2 0x1FB3 JUMP JUMPDEST PUSH1 0x40 MLOAD DUP1 SWAP2 SUB SWAP1 REVERT JUMPDEST PUSH1 0x0 DUP1 PUSH1 0x1 SWAP1 SLOAD SWAP1 PUSH2 0x100 EXP SWAP1 DIV PUSH1 0xFF AND ISZERO SWAP1 POP DUP1 ISZERO PUSH2 0x12AE JUMPI PUSH1 0x1 PUSH1 0x0 PUSH1 0x1 PUSH2 0x100 EXP DUP2 SLOAD DUP2 PUSH1 0xFF MUL NOT AND SWAP1 DUP4 ISZERO ISZERO MUL OR SWAP1 SSTORE POP PUSH1 0x1 PUSH1 0x0 DUP1 PUSH2 0x100 EXP DUP2 SLOAD DUP2 PUSH1 0xFF MUL NOT AND SWAP1 DUP4 ISZERO ISZERO MUL OR SWAP1 SSTORE POP JUMPDEST PUSH2 0x12B6 PUSH2 0x1449 JUMP JUMPDEST DUP3 DUP5 GT ISZERO PUSH2 0x12F9 JUMPI PUSH1 0x40 MLOAD PUSH32 0x8C379A000000000000000000000000000000000000000000000000000000000 DUP2 MSTORE PUSH1 0x4 ADD PUSH2 0x12F0 SWAP1 PUSH2 0x1F53 JUMP JUMPDEST PUSH1 0x40 MLOAD DUP1 SWAP2 SUB SWAP1 REVERT JUMPDEST DUP5 PUSH1 0x65 DUP2 SWAP1 SSTORE POP DUP4 DUP6 PUSH2 0x130C SWAP2 SWAP1 PUSH2 0x216E JUMP JUMPDEST PUSH1 0x66 DUP2 SWAP1 SSTORE POP DUP3 PUSH1 0x67 DUP2 SWAP1 SSTORE POP DUP2 PUSH1 0x69 PUSH1 0x0 PUSH2 0x100 EXP DUP2 SLOAD DUP2 PUSH20 0xFFFFFFFFFFFFFFFFFFFFFFFFFFFFFFFFFFFFFFFF MUL NOT AND SWAP1 DUP4 PUSH20 0xFFFFFFFFFFFFFFFFFFFFFFFFFFFFFFFFFFFFFFFF AND MUL OR SWAP1 SSTORE POP DUP1 ISZERO PUSH2 0x137B JUMPI PUSH1 0x0 DUP1 PUSH1 0x1 PUSH2 0x100 EXP DUP2 SLOAD DUP2 PUSH1 0xFF MUL NOT AND SWAP1 DUP4 ISZERO ISZERO MUL OR SWAP1 SSTORE POP JUMPDEST POP POP POP POP POP JUMP JUMPDEST PUSH1 0x0 PUSH2 0x13E4 DUP3 PUSH1 0x40 MLOAD DUP1 PUSH1 0x40 ADD PUSH1 0x40 MSTORE DUP1 PUSH1 0x20 DUP2 MSTORE PUSH1 0x20 ADD PUSH32 0x5361666545524332303A206C6F772D6C6576656C2063616C6C206661696C6564 DUP2 MSTORE POP DUP6 PUSH20 0xFFFFFFFFFFFFFFFFFFFFFFFFFFFFFFFFFFFFFFFF AND PUSH2 0x1532 SWAP1 SWAP3 SWAP2 SWAP1 PUSH4 0xFFFFFFFF AND JUMP JUMPDEST SWAP1 POP PUSH1 0x0 DUP2 MLOAD GT ISZERO PUSH2 0x1444 JUMPI DUP1 DUP1 PUSH1 0x20 ADD SWAP1 MLOAD DUP2 ADD SWAP1 PUSH2 0x1404 SWAP2 SWAP1 PUSH2 0x1B9C JUMP JUMPDEST PUSH2 0x1443 JUMPI PUSH1 0x40 MLOAD PUSH32 0x8C379A000000000000000000000000000000000000000000000000000000000 DUP2 MSTORE PUSH1 0x4 ADD PUSH2 0x143A SWAP1 PUSH2 0x2073 JUMP JUMPDEST PUSH1 0x40 MLOAD DUP1 SWAP2 SUB SWAP1 REVERT JUMPDEST JUMPDEST POP POP POP JUMP JUMPDEST PUSH1 0x0 PUSH1 0x1 SWAP1 SLOAD SWAP1 PUSH2 0x100 EXP SWAP1 DIV PUSH1 0xFF AND DUP1 PUSH2 0x146F JUMPI POP PUSH1 0x0 DUP1 SLOAD SWAP1 PUSH2 0x100 EXP SWAP1 DIV PUSH1 0xFF AND ISZERO JUMPDEST PUSH2 0x14AE JUMPI PUSH1 0x40 MLOAD PUSH32 0x8C379A000000000000000000000000000000000000000000000000000000000 DUP2 MSTORE PUSH1 0x4 ADD PUSH2 0x14A5 SWAP1 PUSH2 0x1FB3 JUMP JUMPDEST PUSH1 0x40 MLOAD DUP1 SWAP2 SUB SWAP1 REVERT JUMPDEST PUSH1 0x0 DUP1 PUSH1 0x1 SWAP1 SLOAD SWAP1 PUSH2 0x100 EXP SWAP1 DIV PUSH1 0xFF AND ISZERO SWAP1 POP DUP1 ISZERO PUSH2 0x14FE JUMPI PUSH1 0x1 PUSH1 0x0 PUSH1 0x1 PUSH2 0x100 EXP DUP2 SLOAD DUP2 PUSH1 0xFF MUL NOT AND SWAP1 DUP4 ISZERO ISZERO MUL OR SWAP1 SSTORE POP PUSH1 0x1 PUSH1 0x0 DUP1 PUSH2 0x100 EXP DUP2 SLOAD DUP2 PUSH1 0xFF MUL NOT AND SWAP1 DUP4 ISZERO ISZERO MUL OR SWAP1 SSTORE POP JUMPDEST PUSH2 0x1506 PUSH2 0x154A JUMP JUMPDEST PUSH2 0x150E PUSH2 0x1623 JUMP JUMPDEST DUP1 ISZERO PUSH2 0x152F JUMPI PUSH1 0x0 DUP1 PUSH1 0x1 PUSH2 0x100 EXP DUP2 SLOAD DUP2 PUSH1 0xFF MUL NOT AND SWAP1 DUP4 ISZERO ISZERO MUL OR SWAP1 SSTORE POP JUMPDEST POP JUMP JUMPDEST PUSH1 0x60 PUSH2 0x1541 DUP5 DUP5 PUSH1 0x0 DUP6 PUSH2 0x17A5 JUMP JUMPDEST SWAP1 POP SWAP4 SWAP3 POP POP POP JUMP JUMPDEST PUSH1 0x0 PUSH1 0x1 SWAP1 SLOAD SWAP1 PUSH2 0x100 EXP SWAP1 DIV PUSH1 0xFF AND DUP1 PUSH2 0x1570 JUMPI POP PUSH1 0x0 DUP1 SLOAD SWAP1 PUSH2 0x100 EXP SWAP1 DIV PUSH1 0xFF AND ISZERO JUMPDEST PUSH2 0x15AF JUMPI PUSH1 0x40 MLOAD PUSH32 0x8C379A000000000000000000000000000000000000000000000000000000000 DUP2 MSTORE PUSH1 0x4 ADD PUSH2 0x15A6 SWAP1 PUSH2 0x1FB3 JUMP JUMPDEST PUSH1 0x40 MLOAD DUP1 SWAP2 SUB SWAP1 REVERT JUMPDEST PUSH1 0x0 DUP1 PUSH1 0x1 SWAP1 SLOAD SWAP1 PUSH2 0x100 EXP SWAP1 DIV PUSH1 0xFF AND ISZERO SWAP1 POP DUP1 ISZERO PUSH2 0x15FF JUMPI PUSH1 0x1 PUSH1 0x0 PUSH1 0x1 PUSH2 0x100 EXP DUP2 SLOAD DUP2 PUSH1 0xFF MUL NOT AND SWAP1 DUP4 ISZERO ISZERO MUL OR SWAP1 SSTORE POP PUSH1 0x1 PUSH1 0x0 DUP1 PUSH2 0x100 EXP DUP2 SLOAD DUP2 PUSH1 0xFF MUL NOT AND SWAP1 DUP4 ISZERO ISZERO MUL OR SWAP1 SSTORE POP JUMPDEST DUP1 ISZERO PUSH2 0x1620 JUMPI PUSH1 0x0 DUP1 PUSH1 0x1 PUSH2 0x100 EXP DUP2 SLOAD DUP2 PUSH1 0xFF MUL NOT AND SWAP1 DUP4 ISZERO ISZERO MUL OR SWAP1 SSTORE POP JUMPDEST POP JUMP JUMPDEST PUSH1 0x0 PUSH1 0x1 SWAP1 SLOAD SWAP1 PUSH2 0x100 EXP SWAP1 DIV PUSH1 0xFF AND DUP1 PUSH2 0x1649 JUMPI POP PUSH1 0x0 DUP1 SLOAD SWAP1 PUSH2 0x100 EXP SWAP1 DIV PUSH1 0xFF AND ISZERO JUMPDEST PUSH2 0x1688 JUMPI PUSH1 0x40 MLOAD PUSH32 0x8C379A000000000000000000000000000000000000000000000000000000000 DUP2 MSTORE PUSH1 0x4 ADD PUSH2 0x167F SWAP1 PUSH2 0x1FB3 JUMP JUMPDEST PUSH1 0x40 MLOAD DUP1 SWAP2 SUB SWAP1 REVERT JUMPDEST PUSH1 0x0 DUP1 PUSH1 0x1 SWAP1 SLOAD SWAP1 PUSH2 0x100 EXP SWAP1 DIV PUSH1 0xFF AND ISZERO SWAP1 POP DUP1 ISZERO PUSH2 0x16D8 JUMPI PUSH1 0x1 PUSH1 0x0 PUSH1 0x1 PUSH2 0x100 EXP DUP2 SLOAD DUP2 PUSH1 0xFF MUL NOT AND SWAP1 DUP4 ISZERO ISZERO MUL OR SWAP1 SSTORE POP PUSH1 0x1 PUSH1 0x0 DUP1 PUSH2 0x100 EXP DUP2 SLOAD DUP2 PUSH1 0xFF MUL NOT AND SWAP1 DUP4 ISZERO ISZERO MUL OR SWAP1 SSTORE POP JUMPDEST PUSH1 0x0 PUSH2 0x16E2 PUSH2 0x1157 JUMP JUMPDEST SWAP1 POP DUP1 PUSH1 0x33 PUSH1 0x0 PUSH2 0x100 EXP DUP2 SLOAD DUP2 PUSH20 0xFFFFFFFFFFFFFFFFFFFFFFFFFFFFFFFFFFFFFFFF MUL NOT AND SWAP1 DUP4 PUSH20 0xFFFFFFFFFFFFFFFFFFFFFFFFFFFFFFFFFFFFFFFF AND MUL OR SWAP1 SSTORE POP DUP1 PUSH20 0xFFFFFFFFFFFFFFFFFFFFFFFFFFFFFFFFFFFFFFFF AND PUSH1 0x0 PUSH20 0xFFFFFFFFFFFFFFFFFFFFFFFFFFFFFFFFFFFFFFFF AND PUSH32 0x8BE0079C531659141344CD1FD0A4F28419497F9722A3DAAFE3B4186F6B6457E0 PUSH1 0x40 MLOAD PUSH1 0x40 MLOAD DUP1 SWAP2 SUB SWAP1 LOG3 POP DUP1 ISZERO PUSH2 0x17A2 JUMPI PUSH1 0x0 DUP1 PUSH1 0x1 PUSH2 0x100 EXP DUP2 SLOAD DUP2 PUSH1 0xFF MUL NOT AND SWAP1 DUP4 ISZERO ISZERO MUL OR SWAP1 SSTORE POP JUMPDEST POP JUMP JUMPDEST PUSH1 0x60 DUP3 SELFBALANCE LT ISZERO PUSH2 0x17EA JUMPI PUSH1 0x40 MLOAD PUSH32 0x8C379A000000000000000000000000000000000000000000000000000000000 DUP2 MSTORE PUSH1 0x4 ADD PUSH2 0x17E1 SWAP1 PUSH2 0x1F73 JUMP JUMPDEST PUSH1 0x40 MLOAD DUP1 SWAP2 SUB SWAP1 REVERT JUMPDEST PUSH2 0x17F3 DUP6 PUSH2 0x18B9 JUMP JUMPDEST PUSH2 0x1832 JUMPI PUSH1 0x40 MLOAD PUSH32 0x8C379A000000000000000000000000000000000000000000000000000000000 DUP2 MSTORE PUSH1 0x4 ADD PUSH2 0x1829 SWAP1 PUSH2 0x1FF3 JUMP JUMPDEST PUSH1 0x40 MLOAD DUP1 SWAP2 SUB SWAP1 REVERT JUMPDEST PUSH1 0x0 DUP1 DUP7 PUSH20 0xFFFFFFFFFFFFFFFFFFFFFFFFFFFFFFFFFFFFFFFF AND DUP6 DUP8 PUSH1 0x40 MLOAD PUSH2 0x185B SWAP2 SWAP1 PUSH2 0x1E9B JUMP JUMPDEST PUSH1 0x0 PUSH1 0x40 MLOAD DUP1 DUP4 SUB DUP2 DUP6 DUP8 GAS CALL SWAP3 POP POP POP RETURNDATASIZE DUP1 PUSH1 0x0 DUP2 EQ PUSH2 0x1898 JUMPI PUSH1 0x40 MLOAD SWAP2 POP PUSH1 0x1F NOT PUSH1 0x3F RETURNDATASIZE ADD AND DUP3 ADD PUSH1 0x40 MSTORE RETURNDATASIZE DUP3 MSTORE RETURNDATASIZE PUSH1 0x0 PUSH1 0x20 DUP5 ADD RETURNDATACOPY PUSH2 0x189D JUMP JUMPDEST PUSH1 0x60 SWAP2 POP JUMPDEST POP SWAP2 POP SWAP2 POP PUSH2 0x18AD DUP3 DUP3 DUP7 PUSH2 0x18CC JUMP JUMPDEST SWAP3 POP POP POP SWAP5 SWAP4 POP POP POP POP JUMP JUMPDEST PUSH1 0x0 DUP1 DUP3 EXTCODESIZE SWAP1 POP PUSH1 0x0 DUP2 GT SWAP2 POP POP SWAP2 SWAP1 POP JUMP JUMPDEST PUSH1 0x60 DUP4 ISZERO PUSH2 0x18DC JUMPI DUP3 SWAP1 POP PUSH2 0x192C JUMP JUMPDEST PUSH1 0x0 DUP4 MLOAD GT ISZERO PUSH2 0x18EF JUMPI DUP3 MLOAD DUP1 DUP5 PUSH1 0x20 ADD REVERT JUMPDEST DUP2 PUSH1 0x40 MLOAD PUSH32 0x8C379A000000000000000000000000000000000000000000000000000000000 DUP2 MSTORE PUSH1 0x4 ADD PUSH2 0x1923 SWAP2 SWAP1 PUSH2 0x1F11 JUMP JUMPDEST PUSH1 0x40 MLOAD DUP1 SWAP2 SUB SWAP1 REVERT JUMPDEST SWAP4 SWAP3 POP POP POP JUMP JUMPDEST PUSH1 0x40 MLOAD DUP1 PUSH1 0x80 ADD PUSH1 0x40 MSTORE DUP1 PUSH1 0x0 DUP2 MSTORE PUSH1 0x20 ADD PUSH1 0x0 DUP2 MSTORE PUSH1 0x20 ADD PUSH1 0x0 ISZERO ISZERO DUP2 MSTORE PUSH1 0x20 ADD PUSH1 0x0 ISZERO ISZERO DUP2 MSTORE POP SWAP1 JUMP JUMPDEST PUSH1 0x0 DUP2 CALLDATALOAD SWAP1 POP PUSH2 0x196E DUP2 PUSH2 0x2684 JUMP JUMPDEST SWAP3 SWAP2 POP POP JUMP JUMPDEST PUSH1 0x0 DUP1 DUP4 PUSH1 0x1F DUP5 ADD SLT PUSH2 0x1986 JUMPI PUSH1 0x0 DUP1 REVERT JUMPDEST DUP3 CALLDATALOAD SWAP1 POP PUSH8 0xFFFFFFFFFFFFFFFF DUP2 GT ISZERO PUSH2 0x199F JUMPI PUSH1 0x0 DUP1 REVERT JUMPDEST PUSH1 0x20 DUP4 ADD SWAP2 POP DUP4 PUSH1 0x20 DUP3 MUL DUP4 ADD GT ISZERO PUSH2 0x19B7 JUMPI PUSH1 0x0 DUP1 REVERT JUMPDEST SWAP3 POP SWAP3 SWAP1 POP JUMP JUMPDEST PUSH1 0x0 DUP1 DUP4 PUSH1 0x1F DUP5 ADD SLT PUSH2 0x19D0 JUMPI PUSH1 0x0 DUP1 REVERT JUMPDEST DUP3 CALLDATALOAD SWAP1 POP PUSH8 0xFFFFFFFFFFFFFFFF DUP2 GT ISZERO PUSH2 0x19E9 JUMPI PUSH1 0x0 DUP1 REVERT JUMPDEST PUSH1 0x20 DUP4 ADD SWAP2 POP DUP4 PUSH1 0x20 DUP3 MUL DUP4 ADD GT ISZERO PUSH2 0x1A01 JUMPI PUSH1 0x0 DUP1 REVERT JUMPDEST SWAP3 POP SWAP3 SWAP1 POP JUMP JUMPDEST PUSH1 0x0 DUP1 DUP4 PUSH1 0x1F DUP5 ADD SLT PUSH2 0x1A1A JUMPI PUSH1 0x0 DUP1 REVERT JUMPDEST DUP3 CALLDATALOAD SWAP1 POP PUSH8 0xFFFFFFFFFFFFFFFF DUP2 GT ISZERO PUSH2 0x1A33 JUMPI PUSH1 0x0 DUP1 REVERT JUMPDEST PUSH1 0x20 DUP4 ADD SWAP2 POP DUP4 PUSH1 0x20 DUP3 MUL DUP4 ADD GT ISZERO PUSH2 0x1A4B JUMPI PUSH1 0x0 DUP1 REVERT JUMPDEST SWAP3 POP SWAP3 SWAP1 POP JUMP JUMPDEST PUSH1 0x0 DUP2 CALLDATALOAD SWAP1 POP PUSH2 0x1A61 DUP2 PUSH2 0x269B JUMP JUMPDEST SWAP3 SWAP2 POP POP JUMP JUMPDEST PUSH1 0x0 DUP2 MLOAD SWAP1 POP PUSH2 0x1A76 DUP2 PUSH2 0x269B JUMP JUMPDEST SWAP3 SWAP2 POP POP JUMP JUMPDEST PUSH1 0x0 DUP2 CALLDATALOAD SWAP1 POP PUSH2 0x1A8B DUP2 PUSH2 0x26B2 JUMP JUMPDEST SWAP3 SWAP2 POP POP JUMP JUMPDEST PUSH1 0x0 DUP2 MLOAD SWAP1 POP PUSH2 0x1AA0 DUP2 PUSH2 0x26B2 JUMP JUMPDEST SWAP3 SWAP2 POP POP JUMP JUMPDEST PUSH1 0x0 PUSH1 0x20 DUP3 DUP5 SUB SLT ISZERO PUSH2 0x1AB8 JUMPI PUSH1 0x0 DUP1 REVERT JUMPDEST PUSH1 0x0 PUSH2 0x1AC6 DUP5 DUP3 DUP6 ADD PUSH2 0x195F JUMP JUMPDEST SWAP2 POP POP SWAP3 SWAP2 POP POP JUMP JUMPDEST PUSH1 0x0 DUP1 PUSH1 0x0 DUP1 PUSH1 0x0 DUP1 PUSH1 0x60 DUP8 DUP10 SUB SLT ISZERO PUSH2 0x1AE8 JUMPI PUSH1 0x0 DUP1 REVERT JUMPDEST PUSH1 0x0 DUP8 ADD CALLDATALOAD PUSH8 0xFFFFFFFFFFFFFFFF DUP2 GT ISZERO PUSH2 0x1B02 JUMPI PUSH1 0x0 DUP1 REVERT JUMPDEST PUSH2 0x1B0E DUP10 DUP3 DUP11 ADD PUSH2 0x1974 JUMP JUMPDEST SWAP7 POP SWAP7 POP POP PUSH1 0x20 DUP8 ADD CALLDATALOAD PUSH8 0xFFFFFFFFFFFFFFFF DUP2 GT ISZERO PUSH2 0x1B2D JUMPI PUSH1 0x0 DUP1 REVERT JUMPDEST PUSH2 0x1B39 DUP10 DUP3 DUP11 ADD PUSH2 0x1A08 JUMP JUMPDEST SWAP5 POP SWAP5 POP POP PUSH1 0x40 DUP8 ADD CALLDATALOAD PUSH8 0xFFFFFFFFFFFFFFFF DUP2 GT ISZERO PUSH2 0x1B58 JUMPI PUSH1 0x0 DUP1 REVERT JUMPDEST PUSH2 0x1B64 DUP10 DUP3 DUP11 ADD PUSH2 0x19BE JUMP JUMPDEST SWAP3 POP SWAP3 POP POP SWAP3 SWAP6 POP SWAP3 SWAP6 POP SWAP3 SWAP6 JUMP JUMPDEST PUSH1 0x0 PUSH1 0x20 DUP3 DUP5 SUB SLT ISZERO PUSH2 0x1B85 JUMPI PUSH1 0x0 DUP1 REVERT JUMPDEST PUSH1 0x0 PUSH2 0x1B93 DUP5 DUP3 DUP6 ADD PUSH2 0x1A52 JUMP JUMPDEST SWAP2 POP POP SWAP3 SWAP2 POP POP JUMP JUMPDEST PUSH1 0x0 PUSH1 0x20 DUP3 DUP5 SUB SLT ISZERO PUSH2 0x1BAE JUMPI PUSH1 0x0 DUP1 REVERT JUMPDEST PUSH1 0x0 PUSH2 0x1BBC DUP5 DUP3 DUP6 ADD PUSH2 0x1A67 JUMP JUMPDEST SWAP2 POP POP SWAP3 SWAP2 POP POP JUMP JUMPDEST PUSH1 0x0 PUSH1 0x20 DUP3 DUP5 SUB SLT ISZERO PUSH2 0x1BD7 JUMPI PUSH1 0x0 DUP1 REVERT JUMPDEST PUSH1 0x0 PUSH2 0x1BE5 DUP5 DUP3 DUP6 ADD PUSH2 0x1A91 JUMP JUMPDEST SWAP2 POP POP SWAP3 SWAP2 POP POP JUMP JUMPDEST PUSH1 0x0 DUP1 PUSH1 0x0 DUP1 PUSH1 0x80 DUP6 DUP8 SUB SLT ISZERO PUSH2 0x1C04 JUMPI PUSH1 0x0 DUP1 REVERT JUMPDEST PUSH1 0x0 PUSH2 0x1C12 DUP8 DUP3 DUP9 ADD PUSH2 0x1A7C JUMP JUMPDEST SWAP5 POP POP PUSH1 0x20 PUSH2 0x1C23 DUP8 DUP3 DUP9 ADD PUSH2 0x1A7C JUMP JUMPDEST SWAP4 POP POP PUSH1 0x40 PUSH2 0x1C34 DUP8 DUP3 DUP9 ADD PUSH2 0x1A7C JUMP JUMPDEST SWAP3 POP POP PUSH1 0x60 PUSH2 0x1C45 DUP8 DUP3 DUP9 ADD PUSH2 0x195F JUMP JUMPDEST SWAP2 POP POP SWAP3 SWAP6 SWAP2 SWAP5 POP SWAP3 POP JUMP JUMPDEST PUSH2 0x1C5A DUP2 PUSH2 0x2283 JUMP JUMPDEST DUP3 MSTORE POP POP JUMP JUMPDEST PUSH2 0x1C69 DUP2 PUSH2 0x2295 JUMP JUMPDEST DUP3 MSTORE POP POP JUMP JUMPDEST PUSH1 0x0 PUSH2 0x1C7A DUP3 PUSH2 0x213C JUMP JUMPDEST PUSH2 0x1C84 DUP2 DUP6 PUSH2 0x2152 JUMP JUMPDEST SWAP4 POP PUSH2 0x1C94 DUP2 DUP6 PUSH1 0x20 DUP7 ADD PUSH2 0x22EF JUMP JUMPDEST DUP1 DUP5 ADD SWAP2 POP POP SWAP3 SWAP2 POP POP JUMP JUMPDEST PUSH2 0x1CA9 DUP2 PUSH2 0x22CB JUMP JUMPDEST DUP3 MSTORE POP POP JUMP JUMPDEST PUSH1 0x0 PUSH2 0x1CBA DUP3 PUSH2 0x2147 JUMP JUMPDEST PUSH2 0x1CC4 DUP2 DUP6 PUSH2 0x215D JUMP JUMPDEST SWAP4 POP PUSH2 0x1CD4 DUP2 DUP6 PUSH1 0x20 DUP7 ADD PUSH2 0x22EF JUMP JUMPDEST PUSH2 0x1CDD DUP2 PUSH2 0x23C9 JUMP JUMPDEST DUP5 ADD SWAP2 POP POP SWAP3 SWAP2 POP POP JUMP JUMPDEST PUSH1 0x0 PUSH2 0x1CF5 PUSH1 0x26 DUP4 PUSH2 0x215D JUMP JUMPDEST SWAP2 POP PUSH2 0x1D00 DUP3 PUSH2 0x23DA JUMP JUMPDEST PUSH1 0x40 DUP3 ADD SWAP1 POP SWAP2 SWAP1 POP JUMP JUMPDEST PUSH1 0x0 PUSH2 0x1D18 PUSH1 0x20 DUP4 PUSH2 0x215D JUMP JUMPDEST SWAP2 POP PUSH2 0x1D23 DUP3 PUSH2 0x2429 JUMP JUMPDEST PUSH1 0x20 DUP3 ADD SWAP1 POP SWAP2 SWAP1 POP JUMP JUMPDEST PUSH1 0x0 PUSH2 0x1D3B PUSH1 0x26 DUP4 PUSH2 0x215D JUMP JUMPDEST SWAP2 POP PUSH2 0x1D46 DUP3 PUSH2 0x2452 JUMP JUMPDEST PUSH1 0x40 DUP3 ADD SWAP1 POP SWAP2 SWAP1 POP JUMP JUMPDEST PUSH1 0x0 PUSH2 0x1D5E PUSH1 0x12 DUP4 PUSH2 0x215D JUMP JUMPDEST SWAP2 POP PUSH2 0x1D69 DUP3 PUSH2 0x24A1 JUMP JUMPDEST PUSH1 0x20 DUP3 ADD SWAP1 POP SWAP2 SWAP1 POP JUMP JUMPDEST PUSH1 0x0 PUSH2 0x1D81 PUSH1 0x2E DUP4 PUSH2 0x215D JUMP JUMPDEST SWAP2 POP PUSH2 0x1D8C DUP3 PUSH2 0x24CA JUMP JUMPDEST PUSH1 0x40 DUP3 ADD SWAP1 POP SWAP2 SWAP1 POP JUMP JUMPDEST PUSH1 0x0 PUSH2 0x1DA4 PUSH1 0x20 DUP4 PUSH2 0x215D JUMP JUMPDEST SWAP2 POP PUSH2 0x1DAF DUP3 PUSH2 0x2519 JUMP JUMPDEST PUSH1 0x20 DUP3 ADD SWAP1 POP SWAP2 SWAP1 POP JUMP JUMPDEST PUSH1 0x0 PUSH2 0x1DC7 PUSH1 0x1D DUP4 PUSH2 0x215D JUMP JUMPDEST SWAP2 POP PUSH2 0x1DD2 DUP3 PUSH2 0x2542 JUMP JUMPDEST PUSH1 0x20 DUP3 ADD SWAP1 POP SWAP2 SWAP1 POP JUMP JUMPDEST PUSH1 0x0 PUSH2 0x1DEA PUSH1 0x1E DUP4 PUSH2 0x215D JUMP JUMPDEST SWAP2 POP PUSH2 0x1DF5 DUP3 PUSH2 0x256B JUMP JUMPDEST PUSH1 0x20 DUP3 ADD SWAP1 POP SWAP2 SWAP1 POP JUMP JUMPDEST PUSH1 0x0 PUSH2 0x1E0D PUSH1 0x29 DUP4 PUSH2 0x215D JUMP JUMPDEST SWAP2 POP PUSH2 0x1E18 DUP3 PUSH2 0x2594 JUMP JUMPDEST PUSH1 0x40 DUP3 ADD SWAP1 POP SWAP2 SWAP1 POP JUMP JUMPDEST PUSH1 0x0 PUSH2 0x1E30 PUSH1 0x11 DUP4 PUSH2 0x215D JUMP JUMPDEST SWAP2 POP PUSH2 0x1E3B DUP3 PUSH2 0x25E3 JUMP JUMPDEST PUSH1 0x20 DUP3 ADD SWAP1 POP SWAP2 SWAP1 POP JUMP JUMPDEST PUSH1 0x0 PUSH2 0x1E53 PUSH1 0x2A DUP4 PUSH2 0x215D JUMP JUMPDEST SWAP2 POP PUSH2 0x1E5E DUP3 PUSH2 0x260C JUMP JUMPDEST PUSH1 0x40 DUP3 ADD SWAP1 POP SWAP2 SWAP1 POP JUMP JUMPDEST PUSH1 0x0 PUSH2 0x1E76 PUSH1 0xF DUP4 PUSH2 0x215D JUMP JUMPDEST SWAP2 POP PUSH2 0x1E81 DUP3 PUSH2 0x265B JUMP JUMPDEST PUSH1 0x20 DUP3 ADD SWAP1 POP SWAP2 SWAP1 POP JUMP JUMPDEST PUSH2 0x1E95 DUP2 PUSH2 0x22C1 JUMP JUMPDEST DUP3 MSTORE POP POP JUMP JUMPDEST PUSH1 0x0 PUSH2 0x1EA7 DUP3 DUP5 PUSH2 0x1C6F JUMP JUMPDEST SWAP2 POP DUP2 SWAP1 POP SWAP3 SWAP2 POP POP JUMP JUMPDEST PUSH1 0x0 PUSH1 0x20 DUP3 ADD SWAP1 POP PUSH2 0x1EC7 PUSH1 0x0 DUP4 ADD DUP5 PUSH2 0x1C51 JUMP JUMPDEST SWAP3 SWAP2 POP POP JUMP JUMPDEST PUSH1 0x0 PUSH1 0x40 DUP3 ADD SWAP1 POP PUSH2 0x1EE2 PUSH1 0x0 DUP4 ADD DUP6 PUSH2 0x1C51 JUMP JUMPDEST PUSH2 0x1EEF PUSH1 0x20 DUP4 ADD DUP5 PUSH2 0x1E8C JUMP JUMPDEST SWAP4 SWAP3 POP POP POP JUMP JUMPDEST PUSH1 0x0 PUSH1 0x20 DUP3 ADD SWAP1 POP PUSH2 0x1F0B PUSH1 0x0 DUP4 ADD DUP5 PUSH2 0x1CA0 JUMP JUMPDEST SWAP3 SWAP2 POP POP JUMP JUMPDEST PUSH1 0x0 PUSH1 0x20 DUP3 ADD SWAP1 POP DUP2 DUP2 SUB PUSH1 0x0 DUP4 ADD MSTORE PUSH2 0x1F2B DUP2 DUP5 PUSH2 0x1CAF JUMP JUMPDEST SWAP1 POP SWAP3 SWAP2 POP POP JUMP JUMPDEST PUSH1 0x0 PUSH1 0x20 DUP3 ADD SWAP1 POP DUP2 DUP2 SUB PUSH1 0x0 DUP4 ADD MSTORE PUSH2 0x1F4C DUP2 PUSH2 0x1CE8 JUMP JUMPDEST SWAP1 POP SWAP2 SWAP1 POP JUMP JUMPDEST PUSH1 0x0 PUSH1 0x20 DUP3 ADD SWAP1 POP DUP2 DUP2 SUB PUSH1 0x0 DUP4 ADD MSTORE PUSH2 0x1F6C DUP2 PUSH2 0x1D0B JUMP JUMPDEST SWAP1 POP SWAP2 SWAP1 POP JUMP JUMPDEST PUSH1 0x0 PUSH1 0x20 DUP3 ADD SWAP1 POP DUP2 DUP2 SUB PUSH1 0x0 DUP4 ADD MSTORE PUSH2 0x1F8C DUP2 PUSH2 0x1D2E JUMP JUMPDEST SWAP1 POP SWAP2 SWAP1 POP JUMP JUMPDEST PUSH1 0x0 PUSH1 0x20 DUP3 ADD SWAP1 POP DUP2 DUP2 SUB PUSH1 0x0 DUP4 ADD MSTORE PUSH2 0x1FAC DUP2 PUSH2 0x1D51 JUMP JUMPDEST SWAP1 POP SWAP2 SWAP1 POP JUMP JUMPDEST PUSH1 0x0 PUSH1 0x20 DUP3 ADD SWAP1 POP DUP2 DUP2 SUB PUSH1 0x0 DUP4 ADD MSTORE PUSH2 0x1FCC DUP2 PUSH2 0x1D74 JUMP JUMPDEST SWAP1 POP SWAP2 SWAP1 POP JUMP JUMPDEST PUSH1 0x0 PUSH1 0x20 DUP3 ADD SWAP1 POP DUP2 DUP2 SUB PUSH1 0x0 DUP4 ADD MSTORE PUSH2 0x1FEC DUP2 PUSH2 0x1D97 JUMP JUMPDEST SWAP1 POP SWAP2 SWAP1 POP JUMP JUMPDEST PUSH1 0x0 PUSH1 0x20 DUP3 ADD SWAP1 POP DUP2 DUP2 SUB PUSH1 0x0 DUP4 ADD MSTORE PUSH2 0x200C DUP2 PUSH2 0x1DBA JUMP JUMPDEST SWAP1 POP SWAP2 SWAP1 POP JUMP JUMPDEST PUSH1 0x0 PUSH1 0x20 DUP3 ADD SWAP1 POP DUP2 DUP2 SUB PUSH1 0x0 DUP4 ADD MSTORE PUSH2 0x202C DUP2 PUSH2 0x1DDD JUMP JUMPDEST SWAP1 POP SWAP2 SWAP1 POP JUMP JUMPDEST PUSH1 0x0 PUSH1 0x20 DUP3 ADD SWAP1 POP DUP2 DUP2 SUB PUSH1 0x0 DUP4 ADD MSTORE PUSH2 0x204C DUP2 PUSH2 0x1E00 JUMP JUMPDEST SWAP1 POP SWAP2 SWAP1 POP JUMP JUMPDEST PUSH1 0x0 PUSH1 0x20 DUP3 ADD SWAP1 POP DUP2 DUP2 SUB PUSH1 0x0 DUP4 ADD MSTORE PUSH2 0x206C DUP2 PUSH2 0x1E23 JUMP JUMPDEST SWAP1 POP SWAP2 SWAP1 POP JUMP JUMPDEST PUSH1 0x0 PUSH1 0x20 DUP3 ADD SWAP1 POP DUP2 DUP2 SUB PUSH1 0x0 DUP4 ADD MSTORE PUSH2 0x208C DUP2 PUSH2 0x1E46 JUMP JUMPDEST SWAP1 POP SWAP2 SWAP1 POP JUMP JUMPDEST PUSH1 0x0 PUSH1 0x20 DUP3 ADD SWAP1 POP DUP2 DUP2 SUB PUSH1 0x0 DUP4 ADD MSTORE PUSH2 0x20AC DUP2 PUSH2 0x1E69 JUMP JUMPDEST SWAP1 POP SWAP2 SWAP1 POP JUMP JUMPDEST PUSH1 0x0 PUSH1 0x20 DUP3 ADD SWAP1 POP PUSH2 0x20C8 PUSH1 0x0 DUP4 ADD DUP5 PUSH2 0x1E8C JUMP JUMPDEST SWAP3 SWAP2 POP POP JUMP JUMPDEST PUSH1 0x0 PUSH1 0x40 DUP3 ADD SWAP1 POP PUSH2 0x20E3 PUSH1 0x0 DUP4 ADD DUP6 PUSH2 0x1E8C JUMP JUMPDEST PUSH2 0x20F0 PUSH1 0x20 DUP4 ADD DUP5 PUSH2 0x1C60 JUMP JUMPDEST SWAP4 SWAP3 POP POP POP JUMP JUMPDEST PUSH1 0x0 PUSH1 0x80 DUP3 ADD SWAP1 POP PUSH2 0x210C PUSH1 0x0 DUP4 ADD DUP8 PUSH2 0x1E8C JUMP JUMPDEST PUSH2 0x2119 PUSH1 0x20 DUP4 ADD DUP7 PUSH2 0x1E8C JUMP JUMPDEST PUSH2 0x2126 PUSH1 0x40 DUP4 ADD DUP6 PUSH2 0x1C60 JUMP JUMPDEST PUSH2 0x2133 PUSH1 0x60 DUP4 ADD DUP5 PUSH2 0x1C60 JUMP JUMPDEST SWAP6 SWAP5 POP POP POP POP POP JUMP JUMPDEST PUSH1 0x0 DUP2 MLOAD SWAP1 POP SWAP2 SWAP1 POP JUMP JUMPDEST PUSH1 0x0 DUP2 MLOAD SWAP1 POP SWAP2 SWAP1 POP JUMP JUMPDEST PUSH1 0x0 DUP2 SWAP1 POP SWAP3 SWAP2 POP POP JUMP JUMPDEST PUSH1 0x0 DUP3 DUP3 MSTORE PUSH1 0x20 DUP3 ADD SWAP1 POP SWAP3 SWAP2 POP POP JUMP JUMPDEST PUSH1 0x0 PUSH2 0x2179 DUP3 PUSH2 0x22C1 JUMP JUMPDEST SWAP2 POP PUSH2 0x2184 DUP4 PUSH2 0x22C1 JUMP JUMPDEST SWAP3 POP DUP3 PUSH32 0xFFFFFFFFFFFFFFFFFFFFFFFFFFFFFFFFFFFFFFFFFFFFFFFFFFFFFFFFFFFFFFFF SUB DUP3 GT ISZERO PUSH2 0x21B9 JUMPI PUSH2 0x21B8 PUSH2 0x236B JUMP JUMPDEST JUMPDEST DUP3 DUP3 ADD SWAP1 POP SWAP3 SWAP2 POP POP JUMP JUMPDEST PUSH1 0x0 PUSH2 0x21CF DUP3 PUSH2 0x22C1 JUMP JUMPDEST SWAP2 POP PUSH2 0x21DA DUP4 PUSH2 0x22C1 JUMP JUMPDEST SWAP3 POP DUP3 PUSH2 0x21EA JUMPI PUSH2 0x21E9 PUSH2 0x239A JUMP JUMPDEST JUMPDEST DUP3 DUP3 DIV SWAP1 POP SWAP3 SWAP2 POP POP JUMP JUMPDEST PUSH1 0x0 PUSH2 0x2200 DUP3 PUSH2 0x22C1 JUMP JUMPDEST SWAP2 POP PUSH2 0x220B DUP4 PUSH2 0x22C1 JUMP JUMPDEST SWAP3 POP DUP2 PUSH32 0xFFFFFFFFFFFFFFFFFFFFFFFFFFFFFFFFFFFFFFFFFFFFFFFFFFFFFFFFFFFFFFFF DIV DUP4 GT DUP3 ISZERO ISZERO AND ISZERO PUSH2 0x2244 JUMPI PUSH2 0x2243 PUSH2 0x236B JUMP JUMPDEST JUMPDEST DUP3 DUP3 MUL SWAP1 POP SWAP3 SWAP2 POP POP JUMP JUMPDEST PUSH1 0x0 PUSH2 0x225A DUP3 PUSH2 0x22C1 JUMP JUMPDEST SWAP2 POP PUSH2 0x2265 DUP4 PUSH2 0x22C1 JUMP JUMPDEST SWAP3 POP DUP3 DUP3 LT ISZERO PUSH2 0x2278 JUMPI PUSH2 0x2277 PUSH2 0x236B JUMP JUMPDEST JUMPDEST DUP3 DUP3 SUB SWAP1 POP SWAP3 SWAP2 POP POP JUMP JUMPDEST PUSH1 0x0 PUSH2 0x228E DUP3 PUSH2 0x22A1 JUMP JUMPDEST SWAP1 POP SWAP2 SWAP1 POP JUMP JUMPDEST PUSH1 0x0 DUP2 ISZERO ISZERO SWAP1 POP SWAP2 SWAP1 POP JUMP JUMPDEST PUSH1 0x0 PUSH20 0xFFFFFFFFFFFFFFFFFFFFFFFFFFFFFFFFFFFFFFFF DUP3 AND SWAP1 POP SWAP2 SWAP1 POP JUMP JUMPDEST PUSH1 0x0 DUP2 SWAP1 POP SWAP2 SWAP1 POP JUMP JUMPDEST PUSH1 0x0 PUSH2 0x22D6 DUP3 PUSH2 0x22DD JUMP JUMPDEST SWAP1 POP SWAP2 SWAP1 POP JUMP JUMPDEST PUSH1 0x0 PUSH2 0x22E8 DUP3 PUSH2 0x22A1 JUMP JUMPDEST SWAP1 POP SWAP2 SWAP1 POP JUMP JUMPDEST PUSH1 0x0 JUMPDEST DUP4 DUP2 LT ISZERO PUSH2 0x230D JUMPI DUP1 DUP3 ADD MLOAD DUP2 DUP5 ADD MSTORE PUSH1 0x20 DUP2 ADD SWAP1 POP PUSH2 0x22F2 JUMP JUMPDEST DUP4 DUP2 GT ISZERO PUSH2 0x231C JUMPI PUSH1 0x0 DUP5 DUP5 ADD MSTORE JUMPDEST POP POP POP POP JUMP JUMPDEST PUSH1 0x0 PUSH2 0x232D DUP3 PUSH2 0x22C1 JUMP JUMPDEST SWAP2 POP PUSH32 0xFFFFFFFFFFFFFFFFFFFFFFFFFFFFFFFFFFFFFFFFFFFFFFFFFFFFFFFFFFFFFFFF DUP3 EQ ISZERO PUSH2 0x2360 JUMPI PUSH2 0x235F PUSH2 0x236B JUMP JUMPDEST JUMPDEST PUSH1 0x1 DUP3 ADD SWAP1 POP SWAP2 SWAP1 POP JUMP JUMPDEST PUSH32 0x4E487B7100000000000000000000000000000000000000000000000000000000 PUSH1 0x0 MSTORE PUSH1 0x11 PUSH1 0x4 MSTORE PUSH1 0x24 PUSH1 0x0 REVERT JUMPDEST PUSH32 0x4E487B7100000000000000000000000000000000000000000000000000000000 PUSH1 0x0 MSTORE PUSH1 0x12 PUSH1 0x4 MSTORE PUSH1 0x24 PUSH1 0x0 REVERT JUMPDEST PUSH1 0x0 PUSH1 0x1F NOT PUSH1 0x1F DUP4 ADD AND SWAP1 POP SWAP2 SWAP1 POP JUMP JUMPDEST PUSH32 0x4F776E61626C653A206E6577206F776E657220697320746865207A65726F2061 PUSH1 0x0 DUP3 ADD MSTORE PUSH32 0x6464726573730000000000000000000000000000000000000000000000000000 PUSH1 0x20 DUP3 ADD MSTORE POP JUMP JUMPDEST PUSH32 0x436C696666206D757374206265206C657373207468616E206475726174696F6E PUSH1 0x0 DUP3 ADD MSTORE POP JUMP JUMPDEST PUSH32 0x416464726573733A20696E73756666696369656E742062616C616E636520666F PUSH1 0x0 DUP3 ADD MSTORE PUSH32 0x722063616C6C0000000000000000000000000000000000000000000000000000 PUSH1 0x20 DUP3 ADD MSTORE POP JUMP JUMPDEST PUSH32 0x4E6F7468696E6720746F2072656C656173650000000000000000000000000000 PUSH1 0x0 DUP3 ADD MSTORE POP JUMP JUMPDEST PUSH32 0x496E697469616C697A61626C653A20636F6E747261637420697320616C726561 PUSH1 0x0 DUP3 ADD MSTORE PUSH32 0x647920696E697469616C697A6564000000000000000000000000000000000000 PUSH1 0x20 DUP3 ADD MSTORE POP JUMP JUMPDEST PUSH32 0x4F776E61626C653A2063616C6C6572206973206E6F7420746865206F776E6572 PUSH1 0x0 DUP3 ADD MSTORE POP JUMP JUMPDEST PUSH32 0x416464726573733A2063616C6C20746F206E6F6E2D636F6E7472616374000000 PUSH1 0x0 DUP3 ADD MSTORE POP JUMP JUMPDEST PUSH32 0x596F752063616E74206368616E6765207265766F6361626C6520626F6F6C0000 PUSH1 0x0 DUP3 ADD MSTORE POP JUMP JUMPDEST PUSH32 0x416C6C20617267756D656E7473206E6565647320746F20626520746865207361 PUSH1 0x0 DUP3 ADD MSTORE PUSH32 0x6D65206C656E6774680000000000000000000000000000000000000000000000 PUSH1 0x20 DUP3 ADD MSTORE POP JUMP JUMPDEST PUSH32 0x43616E6E6F74206265207265766F6B6564000000000000000000000000000000 PUSH1 0x0 DUP3 ADD MSTORE POP JUMP JUMPDEST PUSH32 0x5361666545524332303A204552433230206F7065726174696F6E20646964206E PUSH1 0x0 DUP3 ADD MSTORE PUSH32 0x6F74207375636365656400000000000000000000000000000000000000000000 PUSH1 0x20 DUP3 ADD MSTORE POP JUMP JUMPDEST PUSH32 0x416C7265616479207265766F6B65640000000000000000000000000000000000 PUSH1 0x0 DUP3 ADD MSTORE POP JUMP JUMPDEST PUSH2 0x268D DUP2 PUSH2 0x2283 JUMP JUMPDEST DUP2 EQ PUSH2 0x2698 JUMPI PUSH1 0x0 DUP1 REVERT JUMPDEST POP JUMP JUMPDEST PUSH2 0x26A4 DUP2 PUSH2 0x2295 JUMP JUMPDEST DUP2 EQ PUSH2 0x26AF JUMPI PUSH1 0x0 DUP1 REVERT JUMPDEST POP JUMP JUMPDEST PUSH2 0x26BB DUP2 PUSH2 0x22C1 JUMP JUMPDEST DUP2 EQ PUSH2 0x26C6 JUMPI PUSH1 0x0 DUP1 REVERT JUMPDEST POP JUMP INVALID LOG2 PUSH5 0x6970667358 0x22 SLT KECCAK256 0xB2 0xCD GAS 0xF6 0x26 LOG0 SELFBALANCE NOT 0xD4 0xC6 0xF7 RETURNDATACOPY INVALID 0xAD LT 0xD7 PUSH25 0xF671B646D20DF364B5715010B0CAA164736F6C634300080300 CALLER "
        },
        "methodIdentifiers": {
          "alreadyGrantedTokens()": "e60e2685",
          "awards(address)": "7b0e5f56",
          "getReleasableAmount(address)": "2afd1a7d",
          "getVestedAmount(address)": "d5a73fdd",
          "grantTokens(address[],uint256[],bool[])": "a8d7f38c",
          "init(uint256,uint256,uint256,address)": "cdd7b1fd",
          "owner()": "8da5cb5b",
          "release(address)": "19165587",
          "renounceOwnership()": "715018a6",
          "revoke(address)": "74a8f103",
          "targetToken()": "327107f7",
          "transferOwnership(address)": "f2fde38b",
          "vestingCliff()": "f3640e74",
          "vestingDuration()": "1514617e",
          "vestingStart()": "254800d4"
        }
      }
    }
  }
}